{
  "_format": "hh-sol-artifact-1",
  "contractName": "TestL3P",
  "sourceName": "contracts/testContracts/TestL3P.sol",
  "abi": [
    {
      "inputs": [],
      "stateMutability": "nonpayable",
      "type": "constructor"
    },
    {
      "anonymous": false,
      "inputs": [
        {
          "indexed": true,
          "internalType": "address",
          "name": "owner",
          "type": "address"
        },
        {
          "indexed": true,
          "internalType": "address",
          "name": "spender",
          "type": "address"
        },
        {
          "indexed": false,
          "internalType": "uint256",
          "name": "value",
          "type": "uint256"
        }
      ],
      "name": "Approval",
      "type": "event"
    },
    {
      "anonymous": false,
      "inputs": [
        {
          "indexed": true,
          "internalType": "address",
          "name": "from",
          "type": "address"
        },
        {
          "indexed": true,
          "internalType": "address",
          "name": "to",
          "type": "address"
        },
        {
          "indexed": false,
          "internalType": "uint256",
          "name": "value",
          "type": "uint256"
        }
      ],
      "name": "Transfer",
      "type": "event"
    },
    {
      "inputs": [
        {
          "internalType": "address",
          "name": "owner",
          "type": "address"
        },
        {
          "internalType": "address",
          "name": "spender",
          "type": "address"
        }
      ],
      "name": "allowance",
      "outputs": [
        {
          "internalType": "uint256",
          "name": "",
          "type": "uint256"
        }
      ],
      "stateMutability": "view",
      "type": "function"
    },
    {
      "inputs": [
        {
          "internalType": "address",
          "name": "spender",
          "type": "address"
        },
        {
          "internalType": "uint256",
          "name": "amount",
          "type": "uint256"
        }
      ],
      "name": "approve",
      "outputs": [
        {
          "internalType": "bool",
          "name": "",
          "type": "bool"
        }
      ],
      "stateMutability": "nonpayable",
      "type": "function"
    },
    {
      "inputs": [
        {
          "internalType": "address",
          "name": "account",
          "type": "address"
        }
      ],
      "name": "balanceOf",
      "outputs": [
        {
          "internalType": "uint256",
          "name": "",
          "type": "uint256"
        }
      ],
      "stateMutability": "view",
      "type": "function"
    },
    {
      "inputs": [],
      "name": "decimals",
      "outputs": [
        {
          "internalType": "uint8",
          "name": "",
          "type": "uint8"
        }
      ],
      "stateMutability": "view",
      "type": "function"
    },
    {
      "inputs": [
        {
          "internalType": "address",
          "name": "spender",
          "type": "address"
        },
        {
          "internalType": "uint256",
          "name": "subtractedValue",
          "type": "uint256"
        }
      ],
      "name": "decreaseAllowance",
      "outputs": [
        {
          "internalType": "bool",
          "name": "",
          "type": "bool"
        }
      ],
      "stateMutability": "nonpayable",
      "type": "function"
    },
    {
      "inputs": [
        {
          "internalType": "address",
          "name": "spender",
          "type": "address"
        },
        {
          "internalType": "uint256",
          "name": "addedValue",
          "type": "uint256"
        }
      ],
      "name": "increaseAllowance",
      "outputs": [
        {
          "internalType": "bool",
          "name": "",
          "type": "bool"
        }
      ],
      "stateMutability": "nonpayable",
      "type": "function"
    },
    {
      "inputs": [
        {
          "internalType": "address[]",
          "name": "to",
          "type": "address[]"
        },
        {
          "internalType": "uint256[]",
          "name": "value",
          "type": "uint256[]"
        }
      ],
      "name": "multiTransfer",
      "outputs": [
        {
          "internalType": "bool",
          "name": "",
          "type": "bool"
        }
      ],
      "stateMutability": "nonpayable",
      "type": "function"
    },
    {
      "inputs": [
        {
          "internalType": "address",
          "name": "from",
          "type": "address"
        },
        {
          "internalType": "address[]",
          "name": "to",
          "type": "address[]"
        },
        {
          "internalType": "uint256[]",
          "name": "value",
          "type": "uint256[]"
        }
      ],
      "name": "multiTransferFrom",
      "outputs": [
        {
          "internalType": "bool",
          "name": "",
          "type": "bool"
        }
      ],
      "stateMutability": "nonpayable",
      "type": "function"
    },
    {
      "inputs": [],
      "name": "name",
      "outputs": [
        {
          "internalType": "string",
          "name": "",
          "type": "string"
        }
      ],
      "stateMutability": "view",
      "type": "function"
    },
    {
      "inputs": [],
      "name": "symbol",
      "outputs": [
        {
          "internalType": "string",
          "name": "",
          "type": "string"
        }
      ],
      "stateMutability": "view",
      "type": "function"
    },
    {
      "inputs": [],
      "name": "totalSupply",
      "outputs": [
        {
          "internalType": "uint256",
          "name": "",
          "type": "uint256"
        }
      ],
      "stateMutability": "view",
      "type": "function"
    },
    {
      "inputs": [
        {
          "internalType": "address",
          "name": "to",
          "type": "address"
        },
        {
          "internalType": "uint256",
          "name": "amount",
          "type": "uint256"
        }
      ],
      "name": "transfer",
      "outputs": [
        {
          "internalType": "bool",
          "name": "",
          "type": "bool"
        }
      ],
      "stateMutability": "nonpayable",
      "type": "function"
    },
    {
      "inputs": [
        {
          "internalType": "address",
          "name": "from",
          "type": "address"
        },
        {
          "internalType": "address",
          "name": "to",
          "type": "address"
        },
        {
          "internalType": "uint256",
          "name": "amount",
          "type": "uint256"
        }
      ],
      "name": "transferFrom",
      "outputs": [
        {
          "internalType": "bool",
          "name": "",
          "type": "bool"
        }
      ],
      "stateMutability": "nonpayable",
      "type": "function"
    }
  ],
  "bytecode": "0x60806040523480156200001157600080fd5b506040518060400160405280600e81526020016d2632b83934b1b7b7102a37b5b2b760911b8152506040518060400160405280600381526020016204c33560ec1b815250816003908162000066919062000250565b50600462000075828262000250565b505050620000b4336200008d620000ba60201b60201c565b6200009d9060ff16600a62000431565b620000ae9064174876e80062000446565b620000bf565b6200047e565b601290565b6001600160a01b0382166200011a5760405162461bcd60e51b815260206004820152601f60248201527f45524332303a206d696e7420746f20746865207a65726f206164647265737300604482015260640160405180910390fd5b80600260008282546200012e919062000468565b90915550506001600160a01b038216600090815260208190526040812080548392906200015d90849062000468565b90915550506040518181526001600160a01b038316906000907fddf252ad1be2c89b69c2b068fc378daa952ba7f163c4a11628f55a4df523b3ef9060200160405180910390a35050565b505050565b634e487b7160e01b600052604160045260246000fd5b600181811c90821680620001d757607f821691505b602082108103620001f857634e487b7160e01b600052602260045260246000fd5b50919050565b601f821115620001a757600081815260208120601f850160051c81016020861015620002275750805b601f850160051c820191505b81811015620002485782815560010162000233565b505050505050565b81516001600160401b038111156200026c576200026c620001ac565b62000284816200027d8454620001c2565b84620001fe565b602080601f831160018114620002bc5760008415620002a35750858301515b600019600386901b1c1916600185901b17855562000248565b600085815260208120601f198616915b82811015620002ed57888601518255948401946001909101908401620002cc565b50858210156200030c5787850151600019600388901b60f8161c191681555b5050505050600190811b01905550565b634e487b7160e01b600052601160045260246000fd5b600181815b80851115620003735781600019048211156200035757620003576200031c565b808516156200036557918102915b93841c939080029062000337565b509250929050565b6000826200038c575060016200042b565b816200039b575060006200042b565b8160018114620003b45760028114620003bf57620003df565b60019150506200042b565b60ff841115620003d357620003d36200031c565b50506001821b6200042b565b5060208310610133831016604e8410600b841016171562000404575081810a6200042b565b62000410838362000332565b80600019048211156200042757620004276200031c565b0290505b92915050565b60006200043f83836200037b565b9392505050565b60008160001904831182151516156200046357620004636200031c565b500290565b808201808211156200042b576200042b6200031c565b610c6e806200048e6000396000f3fe608060405234801561001057600080fd5b50600436106100bf5760003560e01c8063395093511161007c578063395093511461014c57806370a082311461015f57806395d89b4114610188578063a457c2d714610190578063a9059cbb146101a3578063cb31b6cd146101b6578063dd62ed3e146101c957600080fd5b806306fdde03146100c4578063095ea7b3146100e257806318160ddd146101055780631e89d5451461011757806323b872dd1461012a578063313ce5671461013d575b600080fd5b6100cc6101dc565b6040516100d99190610821565b60405180910390f35b6100f56100f036600461088b565b61026e565b60405190151581526020016100d9565b6002545b6040519081526020016100d9565b6100f56101253660046109ed565b610288565b6100f5610138366004610a51565b610339565b604051601281526020016100d9565b6100f561015a36600461088b565b61035d565b61010961016d366004610a8d565b6001600160a01b031660009081526020819052604090205490565b6100cc61037f565b6100f561019e36600461088b565b61038e565b6100f56101b136600461088b565b610409565b6100f56101c4366004610aaf565b610417565b6101096101d7366004610b23565b61048e565b6060600380546101eb90610b56565b80601f016020809104026020016040519081016040528092919081815260200182805461021790610b56565b80156102645780601f1061023957610100808354040283529160200191610264565b820191906000526020600020905b81548152906001019060200180831161024757829003601f168201915b5050505050905090565b60003361027c8185856104b9565b60019150505b92915050565b6000808351116102b35760405162461bcd60e51b81526004016102aa90610b90565b60405180910390fd5b82518251146102d45760405162461bcd60e51b81526004016102aa90610bb5565b60005b835181101561032f5761031d338583815181106102f6576102f6610be0565b602002602001015185848151811061031057610310610be0565b60200260200101516105dd565b8061032781610c0c565b9150506102d7565b5060019392505050565b6000336103478582856107ad565b6103528585856105dd565b506001949350505050565b60003361027c818585610370838361048e565b61037a9190610c25565b6104b9565b6060600480546101eb90610b56565b6000338161039c828661048e565b9050838110156103fc5760405162461bcd60e51b815260206004820152602560248201527f45524332303a2064656372656173656420616c6c6f77616e63652062656c6f77604482015264207a65726f60d81b60648201526084016102aa565b61035282868684036104b9565b60003361027c8185856105dd565b6000808351116104395760405162461bcd60e51b81526004016102aa90610b90565b825182511461045a5760405162461bcd60e51b81526004016102aa90610bb5565b60005b83518110156103525761047c858583815181106102f6576102f6610be0565b8061048681610c0c565b91505061045d565b6001600160a01b03918216600090815260016020908152604080832093909416825291909152205490565b6001600160a01b03831661051b5760405162461bcd60e51b8152602060048201526024808201527f45524332303a20617070726f76652066726f6d20746865207a65726f206164646044820152637265737360e01b60648201526084016102aa565b6001600160a01b03821661057c5760405162461bcd60e51b815260206004820152602260248201527f45524332303a20617070726f766520746f20746865207a65726f206164647265604482015261737360f01b60648201526084016102aa565b6001600160a01b0383811660008181526001602090815260408083209487168084529482529182902085905590518481527f8c5be1e5ebec7d5bd14f71427d1e84f3dd0314c0f7b2291e5b200ac8c7c3b925910160405180910390a3505050565b6001600160a01b0383166106415760405162461bcd60e51b815260206004820152602560248201527f45524332303a207472616e736665722066726f6d20746865207a65726f206164604482015264647265737360d81b60648201526084016102aa565b6001600160a01b0382166106a35760405162461bcd60e51b815260206004820152602360248201527f45524332303a207472616e7366657220746f20746865207a65726f206164647260448201526265737360e81b60648201526084016102aa565b6001600160a01b0383166000908152602081905260409020548181101561071b5760405162461bcd60e51b815260206004820152602660248201527f45524332303a207472616e7366657220616d6f756e7420657863656564732062604482015265616c616e636560d01b60648201526084016102aa565b6001600160a01b03808516600090815260208190526040808220858503905591851681529081208054849290610752908490610c25565b92505081905550826001600160a01b0316846001600160a01b03167fddf252ad1be2c89b69c2b068fc378daa952ba7f163c4a11628f55a4df523b3ef8460405161079e91815260200190565b60405180910390a35b50505050565b60006107b9848461048e565b905060001981146107a757818110156108145760405162461bcd60e51b815260206004820152601d60248201527f45524332303a20696e73756666696369656e7420616c6c6f77616e636500000060448201526064016102aa565b6107a784848484036104b9565b600060208083528351808285015260005b8181101561084e57858101830151858201604001528201610832565b506000604082860101526040601f19601f8301168501019250505092915050565b80356001600160a01b038116811461088657600080fd5b919050565b6000806040838503121561089e57600080fd5b6108a78361086f565b946020939093013593505050565b634e487b7160e01b600052604160045260246000fd5b604051601f8201601f1916810167ffffffffffffffff811182821017156108f4576108f46108b5565b604052919050565b600067ffffffffffffffff821115610916576109166108b5565b5060051b60200190565b600082601f83011261093157600080fd5b81356020610946610941836108fc565b6108cb565b82815260059290921b8401810191818101908684111561096557600080fd5b8286015b848110156109875761097a8161086f565b8352918301918301610969565b509695505050505050565b600082601f8301126109a357600080fd5b813560206109b3610941836108fc565b82815260059290921b840181019181810190868411156109d257600080fd5b8286015b8481101561098757803583529183019183016109d6565b60008060408385031215610a0057600080fd5b823567ffffffffffffffff80821115610a1857600080fd5b610a2486838701610920565b93506020850135915080821115610a3a57600080fd5b50610a4785828601610992565b9150509250929050565b600080600060608486031215610a6657600080fd5b610a6f8461086f565b9250610a7d6020850161086f565b9150604084013590509250925092565b600060208284031215610a9f57600080fd5b610aa88261086f565b9392505050565b600080600060608486031215610ac457600080fd5b610acd8461086f565b9250602084013567ffffffffffffffff80821115610aea57600080fd5b610af687838801610920565b93506040860135915080821115610b0c57600080fd5b50610b1986828701610992565b9150509250925092565b60008060408385031215610b3657600080fd5b610b3f8361086f565b9150610b4d6020840161086f565b90509250929050565b600181811c90821680610b6a57607f821691505b602082108103610b8a57634e487b7160e01b600052602260045260246000fd5b50919050565b6020808252600b908201526a456d70747920617272617960a81b604082015260600190565b60208082526011908201527013195b99dd1a081b5a5cdb585d18da1959607a1b604082015260600190565b634e487b7160e01b600052603260045260246000fd5b634e487b7160e01b600052601160045260246000fd5b600060018201610c1e57610c1e610bf6565b5060010190565b8082018082111561028257610282610bf656fea26469706673582212200d683c56653c3a95026fc04aae116bafe8ac2e3490b75ab95e1649db29db6d6664736f6c63430008100033",
  "linkReferences": {},
  "deployedLinkReferences": {}
}