{
  "_format": "hh-sol-artifact-1",
  "contractName": "GameFactory",
  "sourceName": "contracts/GameFactory.sol",
  "abi": [
    {
      "anonymous": false,
      "inputs": [
        {
          "indexed": false,
          "internalType": "address",
          "name": "admin",
          "type": "address"
        }
      ],
      "name": "AdminAddressSet",
      "type": "event"
    },
    {
      "anonymous": false,
      "inputs": [
        {
          "indexed": false,
          "internalType": "address",
          "name": "owner",
          "type": "address"
        },
        {
          "indexed": true,
          "internalType": "contract IGame",
          "name": "newGameAddress",
          "type": "address"
        },
        {
          "indexed": true,
          "internalType": "uint256",
          "name": "newGameID",
          "type": "uint256"
        },
        {
          "indexed": false,
          "internalType": "bytes32",
          "name": "newGameName",
          "type": "bytes32"
        }
      ],
      "name": "NewGameCreated",
      "type": "event"
    },
    {
      "anonymous": false,
      "inputs": [
        {
          "indexed": true,
          "internalType": "address",
          "name": "previousOwner",
          "type": "address"
        },
        {
          "indexed": true,
          "internalType": "address",
          "name": "newOwner",
          "type": "address"
        }
      ],
      "name": "OwnershipTransferred",
      "type": "event"
    },
    {
      "anonymous": false,
      "inputs": [
        {
          "indexed": false,
          "internalType": "address",
          "name": "account",
          "type": "address"
        }
      ],
      "name": "Paused",
      "type": "event"
    },
    {
      "anonymous": false,
      "inputs": [
        {
          "indexed": false,
          "internalType": "address",
          "name": "paymentManager",
          "type": "address"
        }
      ],
      "name": "PaymentManagerAddressSet",
      "type": "event"
    },
    {
      "anonymous": false,
      "inputs": [
        {
          "indexed": false,
          "internalType": "contract IERC20",
          "name": "token",
          "type": "address"
        }
      ],
      "name": "TokenSet",
      "type": "event"
    },
    {
      "anonymous": false,
      "inputs": [
        {
          "indexed": false,
          "internalType": "address",
          "name": "account",
          "type": "address"
        }
      ],
      "name": "Unpaused",
      "type": "event"
    },
    {
      "inputs": [
        {
          "internalType": "bytes32",
          "name": "gameName",
          "type": "bytes32"
        }
      ],
      "name": "createNewGame",
      "outputs": [
        {
          "internalType": "contract IGame",
          "name": "",
          "type": "address"
        }
      ],
      "stateMutability": "nonpayable",
      "type": "function"
    },
    {
      "inputs": [
        {
          "internalType": "uint256",
          "name": "",
          "type": "uint256"
        }
      ],
      "name": "gamesList",
      "outputs": [
        {
          "internalType": "contract IGame",
          "name": "",
          "type": "address"
        }
      ],
      "stateMutability": "view",
      "type": "function"
    },
    {
      "inputs": [
        {
          "internalType": "uint256",
          "name": "",
          "type": "uint256"
        }
      ],
      "name": "getGameAddress",
      "outputs": [
        {
          "internalType": "contract IGame",
          "name": "",
          "type": "address"
        }
      ],
      "stateMutability": "view",
      "type": "function"
    },
    {
      "inputs": [
        {
          "internalType": "bytes32",
          "name": "",
          "type": "bytes32"
        }
      ],
      "name": "getGameId",
      "outputs": [
        {
          "internalType": "uint256",
          "name": "",
          "type": "uint256"
        }
      ],
      "stateMutability": "view",
      "type": "function"
    },
    {
      "inputs": [
        {
          "internalType": "address",
          "name": "_player",
          "type": "address"
        }
      ],
      "name": "getGameIdPlayedPerPlayer",
      "outputs": [
        {
          "internalType": "contract IGame[]",
          "name": "",
          "type": "address[]"
        }
      ],
      "stateMutability": "view",
      "type": "function"
    },
    {
      "inputs": [
        {
          "internalType": "uint256",
          "name": "_gameId",
          "type": "uint256"
        }
      ],
      "name": "getGamePerIndex",
      "outputs": [
        {
          "internalType": "contract IGame",
          "name": "",
          "type": "address"
        }
      ],
      "stateMutability": "view",
      "type": "function"
    },
    {
      "inputs": [
        {
          "internalType": "address",
          "name": "_player",
          "type": "address"
        }
      ],
      "name": "getGlobalPlayerStats",
      "outputs": [
        {
          "components": [
            {
              "internalType": "address",
              "name": "player",
              "type": "address"
            },
            {
              "internalType": "uint256",
              "name": "totalXp",
              "type": "uint256"
            },
            {
              "internalType": "uint256",
              "name": "totalSessionsPlayed",
              "type": "uint256"
            },
            {
              "internalType": "uint256",
              "name": "totalClaimable",
              "type": "uint256"
            },
            {
              "internalType": "uint256",
              "name": "globalWon",
              "type": "uint256"
            },
            {
              "internalType": "uint256",
              "name": "consecutiveLogin",
              "type": "uint256"
            }
          ],
          "internalType": "struct SharedStructs.GlobalPlayerStats",
          "name": "",
          "type": "tuple"
        }
      ],
      "stateMutability": "view",
      "type": "function"
    },
    {
      "inputs": [],
      "name": "getGlobalSessionsPlayed",
      "outputs": [
        {
          "internalType": "uint256",
          "name": "",
          "type": "uint256"
        }
      ],
      "stateMutability": "view",
      "type": "function"
    },
    {
      "inputs": [
        {
          "internalType": "address",
          "name": "_player",
          "type": "address"
        }
      ],
      "name": "getLoginStatusOf",
      "outputs": [
        {
          "internalType": "uint256",
          "name": "",
          "type": "uint256"
        }
      ],
      "stateMutability": "view",
      "type": "function"
    },
    {
      "inputs": [],
      "name": "getNumberOfGames",
      "outputs": [
        {
          "internalType": "uint256",
          "name": "",
          "type": "uint256"
        }
      ],
      "stateMutability": "view",
      "type": "function"
    },
    {
      "inputs": [],
      "name": "owner",
      "outputs": [
        {
          "internalType": "address",
          "name": "",
          "type": "address"
        }
      ],
      "stateMutability": "view",
      "type": "function"
    },
    {
      "inputs": [],
      "name": "paused",
      "outputs": [
        {
          "internalType": "bool",
          "name": "",
          "type": "bool"
        }
      ],
      "stateMutability": "view",
      "type": "function"
    },
    {
      "inputs": [],
      "name": "renounceOwnership",
      "outputs": [],
      "stateMutability": "nonpayable",
      "type": "function"
    },
    {
      "inputs": [
        {
          "internalType": "address",
          "name": "_admin",
          "type": "address"
        }
      ],
      "name": "setAdmin",
      "outputs": [],
      "stateMutability": "nonpayable",
      "type": "function"
    },
    {
      "inputs": [
        {
          "internalType": "address",
          "name": "_paymentManager",
          "type": "address"
        }
      ],
      "name": "setPaymentManager",
      "outputs": [],
      "stateMutability": "nonpayable",
      "type": "function"
    },
    {
      "inputs": [
        {
          "internalType": "contract IERC20",
          "name": "_token",
          "type": "address"
        }
      ],
      "name": "setToken",
      "outputs": [],
      "stateMutability": "nonpayable",
      "type": "function"
    },
    {
      "inputs": [
        {
          "internalType": "address",
          "name": "newOwner",
          "type": "address"
        }
      ],
      "name": "transferOwnership",
      "outputs": [],
      "stateMutability": "nonpayable",
      "type": "function"
    },
    {
      "inputs": [
        {
          "internalType": "address[]",
          "name": "_players",
          "type": "address[]"
        },
        {
          "internalType": "bool[]",
          "name": "_loggedIn",
          "type": "bool[]"
        }
      ],
      "name": "updatAllPlayersLogin",
      "outputs": [],
      "stateMutability": "nonpayable",
      "type": "function"
    }
  ],
  "bytecode": "0x608060405234801561001057600080fd5b506000805460ff1916905561002433610029565b610082565b600080546001600160a01b03838116610100818102610100600160a81b0319851617855560405193049190911692909183917f8be0079c531659141344cd1fd0a4f28419497f9722a3daafe3b4186f6b6457e091a35050565b613738806100916000396000f3fe60806040523480156200001157600080fd5b50600436106200010b5760003560e01c806374a10019116200009e57806374a10019146200026b5780637e702dc8146200028e5780638da5cb5b14620002a5578063903373b214620002bc578063b27bfba014620002d3578063dcaa794814620002ea578063dd2f4ebd1462000316578063f0953146146200031f578063f2fde38b146200032957600080fd5b8063144fa6d71462000110578063205b4d5914620001295780635054c0a314620001685780635c7e1405146200018e5780635c975abb14620001f6578063704b6c02146200020d5780637068a6461462000224578063715018a6146200023b578063724dbe451462000245575b600080fd5b620001276200012136600462000da5565b62000340565b005b620001556200013a36600462000da5565b6001600160a01b031660009081526006602052604090205490565b6040519081526020015b60405180910390f35b6200017f6200017936600462000dcc565b620003a2565b6040516200015f919062000de6565b620001a56200019f36600462000da5565b620003cd565b6040516200015f919081516001600160a01b031681526020808301519082015260408083015190820152606080830151908201526080808301519082015260a0918201519181019190915260c00190565b60005460ff1660405190151581526020016200015f565b620001276200021e36600462000da5565b62000541565b620001276200023536600462000e49565b620005ca565b62000127620006b4565b6200025c6200025636600462000da5565b620006cc565b6040516200015f919062000ebc565b620001556200027c36600462000dcc565b60046020526000908152604090205481565b620001276200029f36600462000da5565b6200082c565b60005461010090046001600160a01b03166200017f565b6200017f620002cd36600462000dcc565b620008ac565b6200017f620002e436600462000dcc565b620008df565b6200017f620002fb36600462000dcc565b6005602052600090815260409020546001600160a01b031681565b60075462000155565b6200015562000a88565b620001276200033a36600462000da5565b62000b92565b6200034a62000c11565b600380546001600160a01b0319166001600160a01b0383161790556040517fa07c91c183e42229e705a9795a1c06d76528b673788b849597364528c96eefb7906200039790839062000de6565b60405180910390a150565b60078181548110620003b357600080fd5b6000918252602090912001546001600160a01b0316905081565b620003d762000d42565b620003e162000d42565b6001600160a01b038316815260075460005b818110156200051c5760006007828154811062000414576200041462000f0b565b60009182526020822001546040516327eb375760e11b81526001600160a01b0390911692508290634fd66eae9062000451908a9060040162000de6565b60e060405180830381865afa1580156200046f573d6000803e3d6000fd5b505050506040513d601f19601f8201168201806040525081019062000495919062000f44565b9050806020015185602001818151620004af919062000ff5565b9052506040808201519086018051620004ca90839062000ff5565b9052506060808201519086018051620004e590839062000ff5565b90525060808082015190860180516200050090839062000ff5565b9052508291506200051390508162001011565b915050620003f3565b50506001600160a01b0390921660009081526006602052604090205460a08301525090565b6200054b62000c11565b6001600160a01b0381166200057d5760405162461bcd60e51b815260040162000574906200102d565b60405180910390fd5b600180546001600160a01b0319166001600160a01b0383161790556040517fa54e30973125ab6651706f5e9b1b43cf9bdba85ff8204cba762dfe45c0b4b9d0906200039790839062000de6565b620005d462000c11565b620005de62000c73565b828114620006225760405162461bcd60e51b815260206004820152601060248201526f082e4cee640c8dedc4ee840dac2e8c6d60831b604482015260640162000574565b8260005b81811015620006ac5783838281811062000644576200064462000f0b565b90506020020160208101906200065b91906200105f565b156200069757620006978686838181106200067a576200067a62000f0b565b905060200201602081019062000691919062000da5565b62000cbb565b80620006a38162001011565b91505062000626565b505050505050565b620006be62000c11565b620006ca600062000ce9565b565b60075460609060008167ffffffffffffffff811115620006f057620006f062000f21565b6040519080825280602002602001820160405280156200071a578160200160208202803683370190505b5090506000805b83811015620008225760006007828154811062000742576200074262000f0b565b60009182526020822001546040516339412a9160e11b81526001600160a01b03909116925082906372825522906200077f908b9060040162000de6565b602060405180830381865afa1580156200079d573d6000803e3d6000fd5b505050506040513d601f19601f82011682018060405250810190620007c391906200107f565b905080156200080a5781858581518110620007e257620007e262000f0b565b6001600160a01b039092166020928302919091019091015283620008068162001011565b9450505b50508080620008199062001011565b91505062000721565b5090949350505050565b6200083662000c11565b6001600160a01b0381166200085f5760405162461bcd60e51b815260040162000574906200102d565b600280546001600160a01b0319166001600160a01b0383161790556040517fbd5db2db7689266faee848f79e6593b7c97203636de2badfe99b9bfe542d76bb906200039790839062000de6565b600060078281548110620008c457620008c462000f0b565b6000918252602090912001546001600160a01b031692915050565b6000620008eb62000c73565b6007546000818152600560205260409020546001600160a01b0316156200094a5760405162461bcd60e51b815260206004820152601260248201527111d85b5948185b1c9958591e48195e1a5cdd60721b604482015260640162000574565b6001546002546003546040516000938793869333936001600160a01b039384169392831692909116906200097e9062000d81565b95865260208601949094526001600160a01b0392831660408601529082166060850152811660808401521660a082015260c001604051809103906000f080158015620009ce573d6000803e3d6000fd5b5060008581526004602090815260408083208690558583526005825280832080546001600160a01b0386166001600160a01b031991821681179092556007805460018101825595527fa66cc928b5edb82af9bd49922954155ab7b0942694bea4ce44661d9a8736c68890940180549094168117909355805133815291820188905292935084927f35f47fadf930233d5ed4e877f5c41cf043c244eb3dfb9a36ec85b7b2718f4280910160405180910390a39150505b919050565b60075460009081805b8281101562000b8b57604051634819b9d960e11b815260048101829052600090309063903373b290602401602060405180830381865afa15801562000ada573d6000803e3d6000fd5b505050506040513d601f19601f8201168201806040525081019062000b0091906200109f565b9050806001600160a01b031662f1b1436040518163ffffffff1660e01b8152600401602060405180830381865afa15801562000b40573d6000803e3d6000fd5b505050506040513d601f19601f8201168201806040525081019062000b669190620010bf565b62000b72908462000ff5565b925050808062000b829062001011565b91505062000a91565b5092915050565b62000b9c62000c11565b6001600160a01b03811662000c035760405162461bcd60e51b815260206004820152602660248201527f4f776e61626c653a206e6577206f776e657220697320746865207a65726f206160448201526564647265737360d01b606482015260840162000574565b62000c0e8162000ce9565b50565b6000546001600160a01b03610100909104163314620006ca5760405162461bcd60e51b815260206004820181905260248201527f4f776e61626c653a2063616c6c6572206973206e6f7420746865206f776e6572604482015260640162000574565b60005460ff1615620006ca5760405162461bcd60e51b815260206004820152601060248201526f14185d5cd8589b194e881c185d5cd95960821b604482015260640162000574565b6001600160a01b038116600090815260066020526040812080549162000ce18362001011565b919050555050565b600080546001600160a01b03838116610100818102610100600160a81b0319851617855560405193049190911692909183917f8be0079c531659141344cd1fd0a4f28419497f9722a3daafe3b4186f6b6457e091a35050565b6040518060c0016040528060006001600160a01b0316815260200160008152602001600081526020016000815260200160008152602001600081525090565b61262980620010da83390190565b6001600160a01b038116811462000c0e57600080fd5b60006020828403121562000db857600080fd5b813562000dc58162000d8f565b9392505050565b60006020828403121562000ddf57600080fd5b5035919050565b6001600160a01b0391909116815260200190565b60008083601f84011262000e0d57600080fd5b50813567ffffffffffffffff81111562000e2657600080fd5b6020830191508360208260051b850101111562000e4257600080fd5b9250929050565b6000806000806040858703121562000e6057600080fd5b843567ffffffffffffffff8082111562000e7957600080fd5b62000e878883890162000dfa565b9096509450602087013591508082111562000ea157600080fd5b5062000eb08782880162000dfa565b95989497509550505050565b6020808252825182820181905260009190848201906040850190845b8181101562000eff5783516001600160a01b03168352928401929184019160010162000ed8565b50909695505050505050565b634e487b7160e01b600052603260045260246000fd5b634e487b7160e01b600052604160045260246000fd5b805162000a838162000d8f565b600060e0828403121562000f5757600080fd5b60405160e0810181811067ffffffffffffffff8211171562000f8957634e487b7160e01b600052604160045260246000fd5b60405262000f978362000f37565b81526020830151602082015260408301516040820152606083015160608201526080830151608082015260a083015160a082015260c083015160c08201528091505092915050565b634e487b7160e01b600052601160045260246000fd5b808201808211156200100b576200100b62000fdf565b92915050565b60006001820162001026576200102662000fdf565b5060010190565b60208082526009908201526804164647265737320360bc1b604082015260600190565b801515811462000c0e57600080fd5b6000602082840312156200107257600080fd5b813562000dc58162001050565b6000602082840312156200109257600080fd5b815162000dc58162001050565b600060208284031215620010b257600080fd5b815162000dc58162000d8f565b600060208284031215620010d257600080fd5b505191905056fe60e060405260006005553480156200001657600080fd5b50604051620026293803806200262983398101604081905262000039916200025e565b62000044336200011b565b6000805460ff60a01b19169055600180556001600160a01b0383166200009d5760405162461bcd60e51b815260206004820152600960248201526804164647265737320360bc1b60448201526064015b60405180910390fd5b6001600160a01b038216620000e15760405162461bcd60e51b815260206004820152600960248201526804164647265737320360bc1b604482015260640162000094565b600286905560038590556001600160a01b0380841660a05282811660c05281166080526200010f846200016b565b505050505050620002da565b600080546001600160a01b038381166001600160a01b0319831681178455604051919092169283917f8be0079c531659141344cd1fd0a4f28419497f9722a3daafe3b4186f6b6457e09190a35050565b62000175620001ea565b6001600160a01b038116620001dc5760405162461bcd60e51b815260206004820152602660248201527f4f776e61626c653a206e6577206f776e657220697320746865207a65726f206160448201526564647265737360d01b606482015260840162000094565b620001e7816200011b565b50565b6000546001600160a01b03163314620002465760405162461bcd60e51b815260206004820181905260248201527f4f776e61626c653a2063616c6c6572206973206e6f7420746865206f776e6572604482015260640162000094565b565b6001600160a01b0381168114620001e757600080fd5b60008060008060008060c087890312156200027857600080fd5b86519550602087015194506040870151620002938162000248565b6060880151909450620002a68162000248565b6080880151909350620002b98162000248565b60a0880151909250620002cc8162000248565b809150509295509295509295565b60805160a05160c05161229a6200038f60003960008181610615015281816106e00152818161086401528181610a4201528181610d010152818161108f0152818161115f015281816112130152818161133f015261154a0152600081816105e2015281816106ad0152818161083101528181610a0f01528181610bc601528181610cce0152818161105c0152818161112c015281816111e00152818161130c015261151701526000610c06015261229a6000f3fe608060405234801561001057600080fd5b50600436106101785760003560e01c80636b8c2d31116100d957806395959abd1161008757806395959abd146104a2578063c0dc5047146104b5578063c7dd4b4f14610509578063de7b350214610512578063ef8c07ca14610525578063f2f4abdc14610538578063f2fde38b1461054057600080fd5b80636b8c2d31146103e55780636f4bda1714610440578063715018a614610449578063728255221461045157806384837ee114610464578063885c7d361461047a5780638da5cb5b1461049a57600080fd5b80634b4b3ad2116101365780634b4b3ad2146102835780634c54e1b51461028c5780634fd66eae146103215780635c975abb1461038e5780635d52b0d7146103ac57806361198ef3146103bf5780636a95c807146103d257600080fd5b8062f1b1431461017d578063019c1a02146101985780630c64592c1461021157806315acf41e146102525780631ede569414610267578063473bc2231461027a575b600080fd5b610185610553565b6040519081526020015b60405180910390f35b6101df6101a6366004611caa565b600860205260009081526040902080546001820154600283015460039093015460ff8316936101009093046001600160a01b0316929085565b6040805195151586526001600160a01b039094166020860152928401919091526060830152608082015260a00161018f565b61023a61021f366004611cc7565b600a602052600090815260409020546001600160a01b031681565b6040516001600160a01b03909116815260200161018f565b610265610260366004611caa565b6105b5565b005b610265610275366004611caa565b610680565b61018560025481565b61018560045481565b6102e261029a366004611caa565b600660208190526000918252604090912080546001820154600283015460038401546004850154600586015495909601546001600160a01b0390941695929491939092919087565b604080516001600160a01b0390981688526020880196909652948601939093526060850191909152608084015260a083015260c082015260e00161018f565b61033461032f366004611caa565b61074e565b60405161018f919081516001600160a01b031681526020808301519082015260408083015190820152606080830151908201526080808301519082015260a0828101519082015260c0918201519181019190915260e00190565b600054600160a01b900460ff165b604051901515815260200161018f565b6102656103ba366004611d25565b610804565b6102656103cd366004611da0565b6109e2565b6101856103e0366004611dd0565b610c9f565b6103f86103f3366004611caa565b610e58565b60405161018f91908151151581526020808301516001600160a01b03169082015260408083015190820152606080830151908201526080918201519181019190915260a00190565b61018560055481565b610265610ef6565b61039c61045f366004611caa565b610f0a565b61046c610f3c565b60405161018f929190611e48565b610185610488366004611caa565b60096020526000908152604090205481565b61023a611020565b6102656104b0366004611caa565b61102f565b6104ea6104c3366004611caa565b6007602052600090815260409020546001600160a01b03811690600160a01b900460ff1682565b604080516001600160a01b03909316835290151560208301520161018f565b61018560035481565b610265610520366004611e97565b6110ff565b610185610533366004611ef2565b6111b1565b6102656112df565b61026561054e366004611caa565b611427565b6005546000908160015b8281116105ae576000818152600a60209081526040808320546001600160a01b03168084526006909252909120600201546105989084611f34565b92505080806105a690611f47565b91505061055d565b5092915050565b6105bd611020565b6001600160a01b0316336001600160a01b031614806106045750336001600160a01b037f000000000000000000000000000000000000000000000000000000000000000016145b806106375750336001600160a01b037f000000000000000000000000000000000000000000000000000000000000000016145b61065c5760405162461bcd60e51b815260040161065390611f60565b60405180910390fd5b6001600160a01b03166000908152600760205260409020805460ff60a01b19169055565b610688611020565b6001600160a01b0316336001600160a01b031614806106cf5750336001600160a01b037f000000000000000000000000000000000000000000000000000000000000000016145b806107025750336001600160a01b037f000000000000000000000000000000000000000000000000000000000000000016145b61071e5760405162461bcd60e51b815260040161065390611f60565b6001600160a01b0316600081815260076020526040902080546001600160a81b031916909117600160a01b179055565b6107976040518060e0016040528060006001600160a01b031681526020016000815260200160008152602001600081526020016000815260200160008152602001600081525090565b506001600160a01b03908116600090815260066020818152604092839020835160e081018552815490951685526001810154918501919091526002810154928401929092526003820154606084015260048201546080840152600582015460a0840152015460c082015290565b61080c611020565b6001600160a01b0316336001600160a01b031614806108535750336001600160a01b037f000000000000000000000000000000000000000000000000000000000000000016145b806108865750336001600160a01b037f000000000000000000000000000000000000000000000000000000000000000016145b6108a25760405162461bcd60e51b815260040161065390611f60565b6108aa61149d565b6108b5600482611f88565b83146108f65760405162461bcd60e51b815260206004820152601060248201526f57726f6e6720706172616d657465727360801b6044820152606401610653565b826000805b828110156109d9576109ba87878381811061091857610918611faa565b905060200201602081019061092d9190611caa565b86868581811061093f5761093f611faa565b9050602002013587878660016109559190611f34565b81811061096457610964611faa565b90506020020135888887600261097a9190611f34565b81811061098957610989611faa565b90506020020135898988600361099f9190611f34565b8181106109ae576109ae611faa565b905060200201356114ea565b6109c5600483611f34565b9150806109d181611f47565b9150506108fb565b50505050505050565b6109ea611020565b6001600160a01b0316336001600160a01b03161480610a315750336001600160a01b037f000000000000000000000000000000000000000000000000000000000000000016145b80610a645750336001600160a01b037f000000000000000000000000000000000000000000000000000000000000000016145b610a805760405162461bcd60e51b815260040161065390611f60565b610a8861149d565b604051636e2d5ac160e11b815260ff82166004820152600090819073__$4d62a5ae34e2d511493851fdbbce5d22f7$__9063dc5ab5829060240161014060405180830381865af4158015610ae0573d6000803e3d6000fd5b505050506040513d601f19601f82011682018060405250810190610b049190611ff8565b90506000306001600160a01b03166384837ee16040518163ffffffff1660e01b815260040161028060405180830381865afa158015610b47573d6000803e3d6000fd5b505050506040513d601f19601f82011682018060405250810190610b6b9190612062565b509050600a60005b81811015610c4c57600060648583600a8110610b9157610b91611faa565b6020020151610ba39060ff168a61211d565b610bad9190611f88565b90508015610c3357610bbf8187611f34565b9550610c2e7f00000000000000000000000000000000000000000000000000000000000000008584600a8110610bf757610bf7611faa565b60200201516001600160a01b037f0000000000000000000000000000000000000000000000000000000000000000169190846116fc565b610c39565b50610c4c565b5080610c4481611f47565b915050610b73565b50838614610c5c57610c5c61213c565b7ff71fe730e96b288a88d9074f4fefaec0ce4624f38c0fb66124af072cee3f365b828785604051610c8f93929190612152565b60405180910390a1505050505050565b6000610ca9611020565b6001600160a01b0316336001600160a01b03161480610cf05750336001600160a01b037f000000000000000000000000000000000000000000000000000000000000000016145b80610d235750336001600160a01b037f000000000000000000000000000000000000000000000000000000000000000016145b610d3f5760405162461bcd60e51b815260040161065390611f60565b610d4761149d565b6001600160a01b038716610d6d5760405162461bcd60e51b81526004016106539061219e565b6001600160a01b03871660009081526009602052604090205415610dc35760405162461bcd60e51b815260206004820152600d60248201526c22bc34b9ba34b733903ab9b2b960991b6044820152606401610653565b60058054906000610dd383611f47565b9091555050600580546001600160a01b039890981660008181526009602090815260408083208c90558b8352600a825280832080546001600160a01b0319908116861790915584845260069283905292208054909216909217815560018101989098556002880196909655600387018590556004870194909455509184015591015590565b610e956040518060a0016040528060001515815260200160006001600160a01b031681526020016000815260200160008152602001600081525090565b506001600160a01b03908116600090815260086020908152604091829020825160a081018452815460ff8116151582526101009004909416918401919091526001810154918301919091526002810154606083015260030154608082015290565b610efe61175c565b610f0860006117bb565b565b6001600160a01b0381811660009081526006602052604081205490911615610f3457506001919050565b506000919050565b610f44611c76565b610f4c611c76565b610f54611c76565b610f5c611c76565b610f6461180b565b82526001600160a01b0316825260015b600981101561101657610fc783610f8c6001846121c1565b600a8110610f9c57610f9c611faa565b602002015183610fad6001856121c1565b600a8110610fbd57610fbd611faa565b6020020151611877565b8483600a8110610fd957610fd9611faa565b602002018484600a8110610fef57610fef611faa565b60200201919091526001600160a01b0390911690528061100e81611f47565b915050610f74565b5090939092509050565b6000546001600160a01b031690565b611037611020565b6001600160a01b0316336001600160a01b0316148061107e5750336001600160a01b037f000000000000000000000000000000000000000000000000000000000000000016145b806110b15750336001600160a01b037f000000000000000000000000000000000000000000000000000000000000000016145b6110cd5760405162461bcd60e51b815260040161065390611f60565b6001600160a01b0381166110f35760405162461bcd60e51b81526004016106539061219e565b6110fc8161191e565b50565b611107611020565b6001600160a01b0316336001600160a01b0316148061114e5750336001600160a01b037f000000000000000000000000000000000000000000000000000000000000000016145b806111815750336001600160a01b037f000000000000000000000000000000000000000000000000000000000000000016145b61119d5760405162461bcd60e51b815260040161065390611f60565b6111aa8585858585611957565b5050505050565b60006111bb611020565b6001600160a01b0316336001600160a01b031614806112025750336001600160a01b037f000000000000000000000000000000000000000000000000000000000000000016145b806112355750336001600160a01b037f000000000000000000000000000000000000000000000000000000000000000016145b6112515760405162461bcd60e51b815260040161065390611f60565b61125961149d565b6001600160a01b03831660009081526006602052604090206003015480831061129f576001600160a01b03841660009081526006602052604081206003015590506112d9565b6001600160a01b038416600090815260066020526040812060030180548592906112ca9084906121c1565b909155508392506112d9915050565b92915050565b6112e7611020565b6001600160a01b0316336001600160a01b0316148061132e5750336001600160a01b037f000000000000000000000000000000000000000000000000000000000000000016145b806113615750336001600160a01b037f000000000000000000000000000000000000000000000000000000000000000016145b61137d5760405162461bcd60e51b815260040161065390611f60565b61138561149d565b600554600060015b8281116113e1576000818152600a60205260408120546001600160a01b0316906113b6826119d8565b905080156113cc57836113c881611f47565b9450505b505080806113d990611f47565b91505061138d565b506040805183815260208101839052428183015290517f7f5431f22e66eb4701cfc7ac4f9ea468b4a65fee55d5ee740792d3e934c0581c9181900360600190a160045550565b61142f61175c565b6001600160a01b0381166114945760405162461bcd60e51b815260206004820152602660248201527f4f776e61626c653a206e6577206f776e657220697320746865207a65726f206160448201526564647265737360d01b6064820152608401610653565b6110fc816117bb565b600054600160a01b900460ff1615610f085760405162461bcd60e51b815260206004820152601060248201526f14185d5cd8589b194e881c185d5cd95960821b6044820152606401610653565b6114f2611020565b6001600160a01b0316336001600160a01b031614806115395750336001600160a01b037f000000000000000000000000000000000000000000000000000000000000000016145b8061156c5750336001600160a01b037f000000000000000000000000000000000000000000000000000000000000000016145b6115885760405162461bcd60e51b815260040161065390611f60565b61159061149d565b6001600160a01b03808616600090815260066020818152604092839020835160e0810185528154909516855260018101549185018281526002820154948601949094526003810154606086015260048101546080860152600581015460a08601529091015460c0840152859190611608908390611f34565b90525060408101805186919061161f908390611f34565b905250606081018051849190611636908390611f34565b90525060808101805184919061164d908390611f34565b90525060a08101518211156116625781611668565b8060a001515b60a082015260c081015182111561167f5781611685565b8060c001515b60c082019081526001600160a01b03968716600090815260066020818152604092839020855181546001600160a01b0319169b169a909a178a5584015160018a0155908301516002890155606083015160038901556080830151600489015560a09092015160058801555195019490945550505050565b604080516001600160a01b0385811660248301528416604482015260648082018490528251808303909101815260849091019091526020810180516001600160e01b03166323b872dd60e01b179052611756908590611a1c565b50505050565b33611765611020565b6001600160a01b031614610f085760405162461bcd60e51b815260206004820181905260248201527f4f776e61626c653a2063616c6c6572206973206e6f7420746865206f776e65726044820152606401610653565b600080546001600160a01b038381166001600160a01b0319831681178455604051919092169283917f8be0079c531659141344cd1fd0a4f28419497f9722a3daafe3b4186f6b6457e09190a35050565b60055460009081908180805b8381101561186d576000818152600a60209081526040808320546001600160a01b031680845260069092529091206005015484811115611858578094508193505b5050808061186590611f47565b915050611817565b5094909350915050565b60055460009081908180805b83811015611910576000818152600a60209081526040808320546001600160a01b03168084526006909252909120600501548881036118e157896001600160a01b0316826001600160a01b0316146118dc578094508193505b6118fb565b84811180156118ef57508881105b156118fb578094508193505b5050808061190890611f47565b915050611883565b5093509150505b9250929050565b6001600160a01b0316600090815260086020526040812080546001600160a81b0319168155600181018290556002810182905560030155565b83156119ae576001600160a01b0380861660009081526008602052604090208054918516610100026001600160a81b03199092169190911760019081178255810183905560028101829055426003909101556111aa565b6001600160a01b03851660009081526008602052604090205460ff16156111aa576111aa8561191e565b6001600160a01b03811660009081526006602052604081206005015480156112d9576001600160a01b03831660009081526006602052604081206005015592915050565b6000611a71826040518060400160405280602081526020017f5361666545524332303a206c6f772d6c6576656c2063616c6c206661696c6564815250856001600160a01b0316611af39092919063ffffffff16565b805190915015611aee5780806020019051810190611a8f91906121d4565b611aee5760405162461bcd60e51b815260206004820152602a60248201527f5361666545524332303a204552433230206f7065726174696f6e20646964206e6044820152691bdd081cdd58d8d9595960b21b6064820152608401610653565b505050565b6060611b028484600085611b0c565b90505b9392505050565b606082471015611b6d5760405162461bcd60e51b815260206004820152602660248201527f416464726573733a20696e73756666696369656e742062616c616e636520666f6044820152651c8818d85b1b60d21b6064820152608401610653565b6001600160a01b0385163b611bc45760405162461bcd60e51b815260206004820152601d60248201527f416464726573733a2063616c6c20746f206e6f6e2d636f6e74726163740000006044820152606401610653565b600080866001600160a01b03168587604051611be09190612215565b60006040518083038185875af1925050503d8060008114611c1d576040519150601f19603f3d011682016040523d82523d6000602084013e611c22565b606091505b5091509150611c32828286611c3d565b979650505050505050565b60608315611c4c575081611b05565b825115611c5c5782518084602001fd5b8160405162461bcd60e51b81526004016106539190612231565b604051806101400160405280600a906020820280368337509192915050565b6001600160a01b03811681146110fc57600080fd5b600060208284031215611cbc57600080fd5b8135611b0581611c95565b600060208284031215611cd957600080fd5b5035919050565b60008083601f840112611cf257600080fd5b50813567ffffffffffffffff811115611d0a57600080fd5b6020830191508360208260051b850101111561191757600080fd5b60008060008060408587031215611d3b57600080fd5b843567ffffffffffffffff80821115611d5357600080fd5b611d5f88838901611ce0565b90965094506020870135915080821115611d7857600080fd5b50611d8587828801611ce0565b95989497509550505050565b60ff811681146110fc57600080fd5b60008060408385031215611db357600080fd5b823591506020830135611dc581611d91565b809150509250929050565b60008060008060008060c08789031215611de957600080fd5b8635611df481611c95565b9860208801359850604088013597606081013597506080810135965060a00135945092505050565b8060005b600a8110156117565781516001600160a01b0316845260209384019390910190600101611e20565b6102808101611e578285611e1c565b61014082018360005b600a811015611e7f578151835260209283019290910190600101611e60565b5050509392505050565b80151581146110fc57600080fd5b600080600080600060a08688031215611eaf57600080fd5b8535611eba81611c95565b94506020860135611eca81611e89565b93506040860135611eda81611c95565b94979396509394606081013594506080013592915050565b60008060408385031215611f0557600080fd5b8235611f1081611c95565b946020939093013593505050565b634e487b7160e01b600052601160045260246000fd5b808201808211156112d9576112d9611f1e565b600060018201611f5957611f59611f1e565b5060010190565b6020808252600e908201526d139bdd08185d5d1a1bdc9a5e995960921b604082015260600190565b600082611fa557634e487b7160e01b600052601260045260246000fd5b500490565b634e487b7160e01b600052603260045260246000fd5b604051610140810167ffffffffffffffff81118282101715611ff257634e487b7160e01b600052604160045260246000fd5b60405290565b600061014080838503121561200c57600080fd5b83601f84011261201b57600080fd5b612023611fc0565b90830190808583111561203557600080fd5b845b8381101561205857805161204a81611d91565b835260209283019201612037565b5095945050505050565b60008061028080848603121561207757600080fd5b84601f85011261208657600080fd5b61208e611fc0565b806101408601878111156120a157600080fd5b865b818110156120c45780516120b681611c95565b8452602093840193016120a3565b508195508761015f8801126120d857600080fd5b6120e0611fc0565b938701939250829150878411156120f657600080fd5b5b8381101561210f5780518352602092830192016120f7565b508093505050509250929050565b600081600019048311821515161561213757612137611f1e565b500290565b634e487b7160e01b600052600160045260246000fd5b6102a081016121618286611e1c565b8361014083015261016082018360005b600a81101561219357815160ff16835260209283019290910190600101612171565b505050949350505050565b60208082526009908201526804164647265737320360bc1b604082015260600190565b818103818111156112d9576112d9611f1e565b6000602082840312156121e657600080fd5b8151611b0581611e89565b60005b8381101561220c5781810151838201526020016121f4565b50506000910152565b600082516122278184602087016121f1565b9190910192915050565b60208152600082518060208401526122508160408501602087016121f1565b601f01601f1916919091016040019291505056fea26469706673582212200a23d4518dd932a6013639786fd326e07a5e11a18997816ed6d75464a27a4e5864736f6c63430008100033a2646970667358221220ad08413962becb97194aa5a9dd08b1b2a0734c9498d492e77e49b2eb4646ff1264736f6c63430008100033",
  "linkReferences": {
    "contracts/libraries/RewardStructure.sol": {
      "RewardStructure": [
        {
          "length": 20,
          "start": 8095
        }
      ]
    }
  },
  "deployedLinkReferences": {
    "contracts/libraries/RewardStructure.sol": {
      "RewardStructure": [
        {
          "length": 20,
          "start": 7950
        }
      ]
    }
  }
}