{
  "_format": "hh-sol-artifact-1",
  "contractName": "TestToken",
  "sourceName": "contracts/testContracts/TestToken.sol",
  "abi": [
    {
      "inputs": [],
      "stateMutability": "nonpayable",
      "type": "constructor"
    },
    {
      "anonymous": false,
      "inputs": [
        {
          "indexed": true,
          "internalType": "address",
          "name": "owner",
          "type": "address"
        },
        {
          "indexed": true,
          "internalType": "address",
          "name": "spender",
          "type": "address"
        },
        {
          "indexed": false,
          "internalType": "uint256",
          "name": "value",
          "type": "uint256"
        }
      ],
      "name": "Approval",
      "type": "event"
    },
    {
      "anonymous": false,
      "inputs": [
        {
          "indexed": true,
          "internalType": "address",
          "name": "from",
          "type": "address"
        },
        {
          "indexed": true,
          "internalType": "address",
          "name": "to",
          "type": "address"
        },
        {
          "indexed": false,
          "internalType": "uint256",
          "name": "value",
          "type": "uint256"
        }
      ],
      "name": "Transfer",
      "type": "event"
    },
    {
      "inputs": [
        {
          "internalType": "address",
          "name": "owner",
          "type": "address"
        },
        {
          "internalType": "address",
          "name": "spender",
          "type": "address"
        }
      ],
      "name": "allowance",
      "outputs": [
        {
          "internalType": "uint256",
          "name": "",
          "type": "uint256"
        }
      ],
      "stateMutability": "view",
      "type": "function"
    },
    {
      "inputs": [
        {
          "internalType": "address",
          "name": "spender",
          "type": "address"
        },
        {
          "internalType": "uint256",
          "name": "amount",
          "type": "uint256"
        }
      ],
      "name": "approve",
      "outputs": [
        {
          "internalType": "bool",
          "name": "",
          "type": "bool"
        }
      ],
      "stateMutability": "nonpayable",
      "type": "function"
    },
    {
      "inputs": [
        {
          "internalType": "address",
          "name": "account",
          "type": "address"
        }
      ],
      "name": "balanceOf",
      "outputs": [
        {
          "internalType": "uint256",
          "name": "",
          "type": "uint256"
        }
      ],
      "stateMutability": "view",
      "type": "function"
    },
    {
      "inputs": [],
      "name": "decimals",
      "outputs": [
        {
          "internalType": "uint8",
          "name": "",
          "type": "uint8"
        }
      ],
      "stateMutability": "view",
      "type": "function"
    },
    {
      "inputs": [
        {
          "internalType": "address",
          "name": "spender",
          "type": "address"
        },
        {
          "internalType": "uint256",
          "name": "subtractedValue",
          "type": "uint256"
        }
      ],
      "name": "decreaseAllowance",
      "outputs": [
        {
          "internalType": "bool",
          "name": "",
          "type": "bool"
        }
      ],
      "stateMutability": "nonpayable",
      "type": "function"
    },
    {
      "inputs": [
        {
          "internalType": "address",
          "name": "spender",
          "type": "address"
        },
        {
          "internalType": "uint256",
          "name": "addedValue",
          "type": "uint256"
        }
      ],
      "name": "increaseAllowance",
      "outputs": [
        {
          "internalType": "bool",
          "name": "",
          "type": "bool"
        }
      ],
      "stateMutability": "nonpayable",
      "type": "function"
    },
    {
      "inputs": [
        {
          "internalType": "address[]",
          "name": "to",
          "type": "address[]"
        },
        {
          "internalType": "uint256[]",
          "name": "value",
          "type": "uint256[]"
        }
      ],
      "name": "multiTransfer",
      "outputs": [
        {
          "internalType": "bool",
          "name": "",
          "type": "bool"
        }
      ],
      "stateMutability": "nonpayable",
      "type": "function"
    },
    {
      "inputs": [
        {
          "internalType": "address",
          "name": "from",
          "type": "address"
        },
        {
          "internalType": "address[]",
          "name": "to",
          "type": "address[]"
        },
        {
          "internalType": "uint256[]",
          "name": "value",
          "type": "uint256[]"
        }
      ],
      "name": "multiTransferFrom",
      "outputs": [
        {
          "internalType": "bool",
          "name": "",
          "type": "bool"
        }
      ],
      "stateMutability": "nonpayable",
      "type": "function"
    },
    {
      "inputs": [],
      "name": "name",
      "outputs": [
        {
          "internalType": "string",
          "name": "",
          "type": "string"
        }
      ],
      "stateMutability": "view",
      "type": "function"
    },
    {
      "inputs": [],
      "name": "symbol",
      "outputs": [
        {
          "internalType": "string",
          "name": "",
          "type": "string"
        }
      ],
      "stateMutability": "view",
      "type": "function"
    },
    {
      "inputs": [],
      "name": "totalSupply",
      "outputs": [
        {
          "internalType": "uint256",
          "name": "",
          "type": "uint256"
        }
      ],
      "stateMutability": "view",
      "type": "function"
    },
    {
      "inputs": [
        {
          "internalType": "address",
          "name": "to",
          "type": "address"
        },
        {
          "internalType": "uint256",
          "name": "amount",
          "type": "uint256"
        }
      ],
      "name": "transfer",
      "outputs": [
        {
          "internalType": "bool",
          "name": "",
          "type": "bool"
        }
      ],
      "stateMutability": "nonpayable",
      "type": "function"
    },
    {
      "inputs": [
        {
          "internalType": "address",
          "name": "from",
          "type": "address"
        },
        {
          "internalType": "address",
          "name": "to",
          "type": "address"
        },
        {
          "internalType": "uint256",
          "name": "amount",
          "type": "uint256"
        }
      ],
      "name": "transferFrom",
      "outputs": [
        {
          "internalType": "bool",
          "name": "",
          "type": "bool"
        }
      ],
      "stateMutability": "nonpayable",
      "type": "function"
    }
  ],
  "bytecode": "0x60806040523480156200001157600080fd5b506040518060400160405280600a81526020017f5465737420546f6b656e000000000000000000000000000000000000000000008152506040518060400160405280600381526020017f545354000000000000000000000000000000000000000000000000000000000081525081600390816200008f919062000592565b508060049081620000a1919062000592565b505050620000d87f2ad8814dbc8aae324825a2d388074418133959e2cc81b2408474f228ca8510f660001b6200018a60201b60201c565b6200010c7f8f657403fc416b30efd46e105dff2474f7bbceebb0db0eeab6520509fe296c4060001b6200018a60201b60201c565b620001407f2d33dc127e45416454c2ab0a3ce3b92affbba3026f69dcbd959152de6273064f60001b6200018a60201b60201c565b6200018433620001556200018d60201b60201c565b60ff16600a620001669190620007fc565b64174876e8006200017891906200084d565b6200019660201b60201c565b6200099a565b50565b60006012905090565b600073ffffffffffffffffffffffffffffffffffffffff168273ffffffffffffffffffffffffffffffffffffffff160362000208576040517f08c379a0000000000000000000000000000000000000000000000000000000008152600401620001ff906200090f565b60405180910390fd5b6200021c600083836200030e60201b60201c565b806002600082825462000230919062000931565b92505081905550806000808473ffffffffffffffffffffffffffffffffffffffff1673ffffffffffffffffffffffffffffffffffffffff168152602001908152602001600020600082825462000287919062000931565b925050819055508173ffffffffffffffffffffffffffffffffffffffff16600073ffffffffffffffffffffffffffffffffffffffff167fddf252ad1be2c89b69c2b068fc378daa952ba7f163c4a11628f55a4df523b3ef83604051620002ee91906200097d565b60405180910390a36200030a600083836200031360201b60201c565b5050565b505050565b505050565b600081519050919050565b7f4e487b7100000000000000000000000000000000000000000000000000000000600052604160045260246000fd5b7f4e487b7100000000000000000000000000000000000000000000000000000000600052602260045260246000fd5b600060028204905060018216806200039a57607f821691505b602082108103620003b057620003af62000352565b5b50919050565b60008190508160005260206000209050919050565b60006020601f8301049050919050565b600082821b905092915050565b6000600883026200041a7fffffffffffffffffffffffffffffffffffffffffffffffffffffffffffffffff82620003db565b620004268683620003db565b95508019841693508086168417925050509392505050565b6000819050919050565b6000819050919050565b6000620004736200046d62000467846200043e565b62000448565b6200043e565b9050919050565b6000819050919050565b6200048f8362000452565b620004a76200049e826200047a565b848454620003e8565b825550505050565b600090565b620004be620004af565b620004cb81848462000484565b505050565b5b81811015620004f357620004e7600082620004b4565b600181019050620004d1565b5050565b601f82111562000542576200050c81620003b6565b6200051784620003cb565b8101602085101562000527578190505b6200053f6200053685620003cb565b830182620004d0565b50505b505050565b600082821c905092915050565b6000620005676000198460080262000547565b1980831691505092915050565b600062000582838362000554565b9150826002028217905092915050565b6200059d8262000318565b67ffffffffffffffff811115620005b957620005b862000323565b5b620005c5825462000381565b620005d2828285620004f7565b600060209050601f8311600181146200060a5760008415620005f5578287015190505b62000601858262000574565b86555062000671565b601f1984166200061a86620003b6565b60005b8281101562000644578489015182556001820191506020850194506020810190506200061d565b8683101562000664578489015162000660601f89168262000554565b8355505b6001600288020188555050505b505050505050565b7f4e487b7100000000000000000000000000000000000000000000000000000000600052601160045260246000fd5b60008160011c9050919050565b6000808291508390505b60018511156200070757808604811115620006df57620006de62000679565b5b6001851615620006ef5780820291505b8081029050620006ff85620006a8565b9450620006bf565b94509492505050565b600082620007225760019050620007f5565b81620007325760009050620007f5565b81600181146200074b576002811462000756576200078c565b6001915050620007f5565b60ff8411156200076b576200076a62000679565b5b8360020a91508482111562000785576200078462000679565b5b50620007f5565b5060208310610133831016604e8410600b8410161715620007c65782820a905083811115620007c057620007bf62000679565b5b620007f5565b620007d58484846001620006b5565b92509050818404811115620007ef57620007ee62000679565b5b81810290505b9392505050565b600062000809826200043e565b915062000816836200043e565b9250620008457fffffffffffffffffffffffffffffffffffffffffffffffffffffffffffffffff848462000710565b905092915050565b60006200085a826200043e565b915062000867836200043e565b9250817fffffffffffffffffffffffffffffffffffffffffffffffffffffffffffffffff0483118215151615620008a357620008a262000679565b5b828202905092915050565b600082825260208201905092915050565b7f45524332303a206d696e7420746f20746865207a65726f206164647265737300600082015250565b6000620008f7601f83620008ae565b91506200090482620008bf565b602082019050919050565b600060208201905081810360008301526200092a81620008e8565b9050919050565b60006200093e826200043e565b91506200094b836200043e565b925082820190508082111562000966576200096562000679565b5b92915050565b62000977816200043e565b82525050565b60006020820190506200099460008301846200096c565b92915050565b611ee380620009aa6000396000f3fe608060405234801561001057600080fd5b50600436106100df5760003560e01c8063395093511161008c578063a457c2d711610066578063a457c2d71461024c578063a9059cbb1461027c578063cb31b6cd146102ac578063dd62ed3e146102dc576100df565b806339509351146101ce57806370a08231146101fe57806395d89b411461022e576100df565b80631e89d545116100bd5780631e89d5451461015057806323b872dd14610180578063313ce567146101b0576100df565b806306fdde03146100e4578063095ea7b31461010257806318160ddd14610132575b600080fd5b6100ec61030c565b6040516100f99190611354565b60405180910390f35b61011c6004803603810190610117919061141e565b61039e565b6040516101299190611479565b60405180910390f35b61013a6103c1565b60405161014791906114a3565b60405180910390f35b61016a600480360381019061016591906116c9565b6103cb565b6040516101779190611479565b60405180910390f35b61019a60048036038101906101959190611741565b610752565b6040516101a79190611479565b60405180910390f35b6101b8610781565b6040516101c591906117b0565b60405180910390f35b6101e860048036038101906101e3919061141e565b61078a565b6040516101f59190611479565b60405180910390f35b610218600480360381019061021391906117cb565b6107c1565b60405161022591906114a3565b60405180910390f35b610236610809565b6040516102439190611354565b60405180910390f35b6102666004803603810190610261919061141e565b61089b565b6040516102739190611479565b60405180910390f35b6102966004803603810190610291919061141e565b610912565b6040516102a39190611479565b60405180910390f35b6102c660048036038101906102c191906117f8565b610935565b6040516102d39190611479565b60405180910390f35b6102f660048036038101906102f19190611883565b610d54565b60405161030391906114a3565b60405180910390f35b60606003805461031b906118f2565b80601f0160208091040260200160405190810160405280929190818152602001828054610347906118f2565b80156103945780601f1061036957610100808354040283529160200191610394565b820191906000526020600020905b81548152906001019060200180831161037757829003601f168201915b5050505050905090565b6000806103a9610ddb565b90506103b6818585610de3565b600191505092915050565b6000600254905090565b60006103f97f60329a013d7e1750e7d449659c3ce14b12ce4c93e896299ffc6e805a88c79a4660001b610fac565b6104257fdf6ce8e5a1fc2c22a7bc39f1be55f648b8ed60f888c7127e29a405988e7bd82760001b610fac565b6104517f226f5292091989e64b2d85cfde57873a3f225ac84a812ac784d94b35b25c344360001b610fac565b61047d7f5773d33cf591326bc65d711e05c461398bd7b5acea5d53c87daceb39d3fae68060001b610fac565b60008351116104c1576040517f08c379a00000000000000000000000000000000000000000000000000000000081526004016104b89061196f565b60405180910390fd5b6104ed7f25c1b5b7bd220cc969f8ab6d0b507e8252f50ef80b27a87727059b7a40e603f660001b610fac565b6105197f54e4ecc07856e97a820df13308ee42639fa1233aa5f67366adf46bdfb188b1a760001b610fac565b6105457f9b824fa2efbd268b39483edb85adf3fd1a3745106cd6434886b75dc085e2f95b60001b610fac565b6105717ff88a52c0a2d24952544fd42cd1dd8d015d88f63d050b58e5e7e27347d09c59cc60001b610fac565b82518251146105b5576040517f08c379a00000000000000000000000000000000000000000000000000000000081526004016105ac906119db565b60405180910390fd5b6105e17f44bb660dfdbb0b45b1f82d78591cfef269e50141a1b63b04f3e4a3f6ecfd4bc360001b610fac565b61060d7fc2cc6c0649df882dc4cf2197d0d7085c47c2ddbbe96072707cb8cdc206a858d360001b610fac565b6106397f681604d12508e80fe7b1e46f49ea4b0968b9d70c3575109b9248b75b1639b55860001b610fac565b60005b83518110156106ef576106717f168e03efb0903e10291d06b5c987f25a9e8dfdc4db3737ba4f666799bbc8885960001b610fac565b61069d7ff66a89b59e6145fe36a79989691e563757854954d396bed684ef10a1468f627660001b610fac565b6106dc338583815181106106b4576106b36119fb565b5b60200260200101518584815181106106cf576106ce6119fb565b5b6020026020010151610faf565b80806106e790611a59565b91505061063c565b5061071c7f1624c168e76047bb9c70aa5674c063ad3a1e4618dfd567d593e7b2272098bca760001b610fac565b6107487f89640b8d741cd51e0b6218212d5c26321489d54da89137c1287dff40996eaa5f60001b610fac565b6001905092915050565b60008061075d610ddb565b905061076a85828561122e565b610775858585610faf565b60019150509392505050565b60006012905090565b600080610795610ddb565b90506107b68185856107a78589610d54565b6107b19190611aa1565b610de3565b600191505092915050565b60008060008373ffffffffffffffffffffffffffffffffffffffff1673ffffffffffffffffffffffffffffffffffffffff168152602001908152602001600020549050919050565b606060048054610818906118f2565b80601f0160208091040260200160405190810160405280929190818152602001828054610844906118f2565b80156108915780601f1061086657610100808354040283529160200191610891565b820191906000526020600020905b81548152906001019060200180831161087457829003601f168201915b5050505050905090565b6000806108a6610ddb565b905060006108b48286610d54565b9050838110156108f9576040517f08c379a00000000000000000000000000000000000000000000000000000000081526004016108f090611b47565b60405180910390fd5b6109068286868403610de3565b60019250505092915050565b60008061091d610ddb565b905061092a818585610faf565b600191505092915050565b60006109637fa69fc931d37c43d06a174120c4989cace2848827011b47984cdf7f22481a1cdb60001b610fac565b61098f7f29dbe642d35157b4bfaa51e2157727ec6095038973905b857161d28bfa87882160001b610fac565b6109bb7f1a1a8111583fe54456cf598f3eb1fea34e5ccd4cfc3c6d59ba808458e482f1c460001b610fac565b6109e77fda050b6fd20f93788593238119da3ec5d169b139874f072a6a3763d46f2ca6c360001b610fac565b6000835111610a2b576040517f08c379a0000000000000000000000000000000000000000000000000000000008152600401610a229061196f565b60405180910390fd5b610a577f98a32cd536a78c3a94882596e5a8abe7733e65ad1f350dde80c45336e7f45f7960001b610fac565b610a837f4d422dc5dd8ebd472e21c5916f2a53dfe3fbcc25fb8ac66ef61a0e4ba20d541760001b610fac565b610aaf7f9b54cda93e31506113e1a2351adc0f76372d73f11e3da464e2640cb07d3b66d860001b610fac565b610adb7f0e46be16fa40561a8918bb12be9cfa4a2bc1671be9496a625d7faf10df04441a60001b610fac565b8251825114610b1f576040517f08c379a0000000000000000000000000000000000000000000000000000000008152600401610b16906119db565b60405180910390fd5b610b4b7fd8ae9a503afe16010060d77ea0c9ca8d42f766878f6cdf01908b417343afd91f60001b610fac565b610b777ff21d1580ce2d4b60e77cd015d230f4c0570e55f859957ce613087549aeccec3660001b610fac565b610ba37f797015667869b7d0060ee9cbaa1a80554b927dea4a83ca76f14c363e4a0413bb60001b610fac565b60005b8351811015610cf057610bdb7f5d1b4effd93f57126275ea67369c92f8c691e856f7920e8fa6530ff832b2818660001b610fac565b610c077ff591acd1186969c52c9e0227bd23651964bc030c352fa44a20c1949dea1ceb1660001b610fac565b610c4685858381518110610c1e57610c1d6119fb565b5b6020026020010151858481518110610c3957610c386119fb565b5b602002602001015161122e565b610c727fb4df5c3ecdb992b928ed2e577b7207b089d4309f6067faf54d5c6bdfbf0723c160001b610fac565b610c9e7f2aa73eba7981f8281011f260fc94b9aa859754163c9ad5d5147f1b390eccaa7e60001b610fac565b610cdd85858381518110610cb557610cb46119fb565b5b6020026020010151858481518110610cd057610ccf6119fb565b5b6020026020010151610faf565b8080610ce890611a59565b915050610ba6565b50610d1d7f63fa33a3d07c39eb3836d64e0926c7171365ea5ff03a794cf1f62a8a3b0f588460001b610fac565b610d497f8336793e7007ec34af6843331882ac62353e9c5ab21fa75c7228143ea3f6c5fa60001b610fac565b600190509392505050565b6000600160008473ffffffffffffffffffffffffffffffffffffffff1673ffffffffffffffffffffffffffffffffffffffff16815260200190815260200160002060008373ffffffffffffffffffffffffffffffffffffffff1673ffffffffffffffffffffffffffffffffffffffff16815260200190815260200160002054905092915050565b600033905090565b600073ffffffffffffffffffffffffffffffffffffffff168373ffffffffffffffffffffffffffffffffffffffff1603610e52576040517f08c379a0000000000000000000000000000000000000000000000000000000008152600401610e4990611bd9565b60405180910390fd5b600073ffffffffffffffffffffffffffffffffffffffff168273ffffffffffffffffffffffffffffffffffffffff1603610ec1576040517f08c379a0000000000000000000000000000000000000000000000000000000008152600401610eb890611c6b565b60405180910390fd5b80600160008573ffffffffffffffffffffffffffffffffffffffff1673ffffffffffffffffffffffffffffffffffffffff16815260200190815260200160002060008473ffffffffffffffffffffffffffffffffffffffff1673ffffffffffffffffffffffffffffffffffffffff168152602001908152602001600020819055508173ffffffffffffffffffffffffffffffffffffffff168373ffffffffffffffffffffffffffffffffffffffff167f8c5be1e5ebec7d5bd14f71427d1e84f3dd0314c0f7b2291e5b200ac8c7c3b92583604051610f9f91906114a3565b60405180910390a3505050565b50565b600073ffffffffffffffffffffffffffffffffffffffff168373ffffffffffffffffffffffffffffffffffffffff160361101e576040517f08c379a000000000000000000000000000000000000000000000000000000000815260040161101590611cfd565b60405180910390fd5b600073ffffffffffffffffffffffffffffffffffffffff168273ffffffffffffffffffffffffffffffffffffffff160361108d576040517f08c379a000000000000000000000000000000000000000000000000000000000815260040161108490611d8f565b60405180910390fd5b6110988383836112ba565b60008060008573ffffffffffffffffffffffffffffffffffffffff1673ffffffffffffffffffffffffffffffffffffffff1681526020019081526020016000205490508181101561111e576040517f08c379a000000000000000000000000000000000000000000000000000000000815260040161111590611e21565b60405180910390fd5b8181036000808673ffffffffffffffffffffffffffffffffffffffff1673ffffffffffffffffffffffffffffffffffffffff16815260200190815260200160002081905550816000808573ffffffffffffffffffffffffffffffffffffffff1673ffffffffffffffffffffffffffffffffffffffff16815260200190815260200160002060008282546111b19190611aa1565b925050819055508273ffffffffffffffffffffffffffffffffffffffff168473ffffffffffffffffffffffffffffffffffffffff167fddf252ad1be2c89b69c2b068fc378daa952ba7f163c4a11628f55a4df523b3ef8460405161121591906114a3565b60405180910390a36112288484846112bf565b50505050565b600061123a8484610d54565b90507fffffffffffffffffffffffffffffffffffffffffffffffffffffffffffffffff81146112b457818110156112a6576040517f08c379a000000000000000000000000000000000000000000000000000000000815260040161129d90611e8d565b60405180910390fd5b6112b38484848403610de3565b5b50505050565b505050565b505050565b600081519050919050565b600082825260208201905092915050565b60005b838110156112fe5780820151818401526020810190506112e3565b60008484015250505050565b6000601f19601f8301169050919050565b6000611326826112c4565b61133081856112cf565b93506113408185602086016112e0565b6113498161130a565b840191505092915050565b6000602082019050818103600083015261136e818461131b565b905092915050565b6000604051905090565b600080fd5b600080fd5b600073ffffffffffffffffffffffffffffffffffffffff82169050919050565b60006113b58261138a565b9050919050565b6113c5816113aa565b81146113d057600080fd5b50565b6000813590506113e2816113bc565b92915050565b6000819050919050565b6113fb816113e8565b811461140657600080fd5b50565b600081359050611418816113f2565b92915050565b6000806040838503121561143557611434611380565b5b6000611443858286016113d3565b925050602061145485828601611409565b9150509250929050565b60008115159050919050565b6114738161145e565b82525050565b600060208201905061148e600083018461146a565b92915050565b61149d816113e8565b82525050565b60006020820190506114b86000830184611494565b92915050565b600080fd5b7f4e487b7100000000000000000000000000000000000000000000000000000000600052604160045260246000fd5b6114fb8261130a565b810181811067ffffffffffffffff8211171561151a576115196114c3565b5b80604052505050565b600061152d611376565b905061153982826114f2565b919050565b600067ffffffffffffffff821115611559576115586114c3565b5b602082029050602081019050919050565b600080fd5b600061158261157d8461153e565b611523565b905080838252602082019050602084028301858111156115a5576115a461156a565b5b835b818110156115ce57806115ba88826113d3565b8452602084019350506020810190506115a7565b5050509392505050565b600082601f8301126115ed576115ec6114be565b5b81356115fd84826020860161156f565b91505092915050565b600067ffffffffffffffff821115611621576116206114c3565b5b602082029050602081019050919050565b600061164561164084611606565b611523565b905080838252602082019050602084028301858111156116685761166761156a565b5b835b81811015611691578061167d8882611409565b84526020840193505060208101905061166a565b5050509392505050565b600082601f8301126116b0576116af6114be565b5b81356116c0848260208601611632565b91505092915050565b600080604083850312156116e0576116df611380565b5b600083013567ffffffffffffffff8111156116fe576116fd611385565b5b61170a858286016115d8565b925050602083013567ffffffffffffffff81111561172b5761172a611385565b5b6117378582860161169b565b9150509250929050565b60008060006060848603121561175a57611759611380565b5b6000611768868287016113d3565b9350506020611779868287016113d3565b925050604061178a86828701611409565b9150509250925092565b600060ff82169050919050565b6117aa81611794565b82525050565b60006020820190506117c560008301846117a1565b92915050565b6000602082840312156117e1576117e0611380565b5b60006117ef848285016113d3565b91505092915050565b60008060006060848603121561181157611810611380565b5b600061181f868287016113d3565b935050602084013567ffffffffffffffff8111156118405761183f611385565b5b61184c868287016115d8565b925050604084013567ffffffffffffffff81111561186d5761186c611385565b5b6118798682870161169b565b9150509250925092565b6000806040838503121561189a57611899611380565b5b60006118a8858286016113d3565b92505060206118b9858286016113d3565b9150509250929050565b7f4e487b7100000000000000000000000000000000000000000000000000000000600052602260045260246000fd5b6000600282049050600182168061190a57607f821691505b60208210810361191d5761191c6118c3565b5b50919050565b7f456d707479206172726179000000000000000000000000000000000000000000600082015250565b6000611959600b836112cf565b915061196482611923565b602082019050919050565b600060208201905081810360008301526119888161194c565b9050919050565b7f4c656e677468206d69736d617463686564000000000000000000000000000000600082015250565b60006119c56011836112cf565b91506119d08261198f565b602082019050919050565b600060208201905081810360008301526119f4816119b8565b9050919050565b7f4e487b7100000000000000000000000000000000000000000000000000000000600052603260045260246000fd5b7f4e487b7100000000000000000000000000000000000000000000000000000000600052601160045260246000fd5b6000611a64826113e8565b91507fffffffffffffffffffffffffffffffffffffffffffffffffffffffffffffffff8203611a9657611a95611a2a565b5b600182019050919050565b6000611aac826113e8565b9150611ab7836113e8565b9250828201905080821115611acf57611ace611a2a565b5b92915050565b7f45524332303a2064656372656173656420616c6c6f77616e63652062656c6f7760008201527f207a65726f000000000000000000000000000000000000000000000000000000602082015250565b6000611b316025836112cf565b9150611b3c82611ad5565b604082019050919050565b60006020820190508181036000830152611b6081611b24565b9050919050565b7f45524332303a20617070726f76652066726f6d20746865207a65726f2061646460008201527f7265737300000000000000000000000000000000000000000000000000000000602082015250565b6000611bc36024836112cf565b9150611bce82611b67565b604082019050919050565b60006020820190508181036000830152611bf281611bb6565b9050919050565b7f45524332303a20617070726f766520746f20746865207a65726f20616464726560008201527f7373000000000000000000000000000000000000000000000000000000000000602082015250565b6000611c556022836112cf565b9150611c6082611bf9565b604082019050919050565b60006020820190508181036000830152611c8481611c48565b9050919050565b7f45524332303a207472616e736665722066726f6d20746865207a65726f20616460008201527f6472657373000000000000000000000000000000000000000000000000000000602082015250565b6000611ce76025836112cf565b9150611cf282611c8b565b604082019050919050565b60006020820190508181036000830152611d1681611cda565b9050919050565b7f45524332303a207472616e7366657220746f20746865207a65726f206164647260008201527f6573730000000000000000000000000000000000000000000000000000000000602082015250565b6000611d796023836112cf565b9150611d8482611d1d565b604082019050919050565b60006020820190508181036000830152611da881611d6c565b9050919050565b7f45524332303a207472616e7366657220616d6f756e742065786365656473206260008201527f616c616e63650000000000000000000000000000000000000000000000000000602082015250565b6000611e0b6026836112cf565b9150611e1682611daf565b604082019050919050565b60006020820190508181036000830152611e3a81611dfe565b9050919050565b7f45524332303a20696e73756666696369656e7420616c6c6f77616e6365000000600082015250565b6000611e77601d836112cf565b9150611e8282611e41565b602082019050919050565b60006020820190508181036000830152611ea681611e6a565b905091905056fea2646970667358221220fbd939f9c66fe45ca2cf550584471e24a8d8a9930e81c3d43bcc7d54b96bf30e64736f6c63430008100033",
  "linkReferences": {},
  "deployedLinkReferences": {}
}