{
  "_format": "hh-sol-artifact-1",
  "contractName": "RewardStructure",
  "sourceName": "contracts/libraries/RewardStructure.sol",
  "abi": [
    {
      "inputs": [
        {
          "internalType": "uint8",
          "name": "x",
          "type": "uint8"
        }
      ],
      "name": "getRewardStructure",
      "outputs": [
        {
          "internalType": "uint8[10]",
          "name": "rewards",
          "type": "uint8[10]"
        }
      ],
      "stateMutability": "pure",
      "type": "function"
    }
  ],
  "bytecode": "0x6102aa61003a600b82828239805160001a60731461002d57634e487b7160e01b600052600060045260246000fd5b30600052607381538281f3fe73000000000000000000000000000000000000000030146080604052600436106100355760003560e01c8063dc5ab5821461003a575b600080fd5b61004d610048366004610215565b610063565b60405161005a919061023f565b60405180910390f35b61006b6101f6565b8160ff16600a148061008057508160ff166005145b8061008e57508160ff166003145b6100ce5760405162461bcd60e51b815260206004820152600d60248201526c696e76616c69642076616c756560981b604482015260640160405180910390fd5b8160ff16600a036101305750506040805161014081018252601f815260146020820152600f91810191909152600a606082015260086080820152600660a0820152600460c0820152600360e08201526002610100820152600161012082015290565b8160ff166005036101925750506040805161014081018252602d815260196020820152600f91810191909152600a606082015260056080820152600060a0820181905260c0820181905260e08201819052610100820181905261012082015290565b8160ff166003036101f15750604080516101408101825260328152601e60208201526014918101919091526000606082018190526080820181905260a0820181905260c0820181905260e0820181905261010082018190526101208201525b919050565b604051806101400160405280600a906020820280368337509192915050565b60006020828403121561022757600080fd5b813560ff8116811461023857600080fd5b9392505050565b6101408101818360005b600a81101561026b57815160ff16835260209283019290910190600101610249565b5050509291505056fea2646970667358221220f964dc52abd729da64a725b46df75bd3f80db7431b026963ae0ac0424e3a083f64736f6c63430008100033",
  "linkReferences": {},
  "deployedLinkReferences": {}
}