{
  "_format": "hh-sol-artifact-1",
  "contractName": "PaymentManager",
  "sourceName": "contracts/PaymentManager.sol",
  "abi": [
    {
      "inputs": [
        {
          "internalType": "contract IERC20",
          "name": "_token",
          "type": "address"
        },
        {
          "internalType": "address",
          "name": "_paymentAddress",
          "type": "address"
        },
        {
          "internalType": "address",
          "name": "_gameFactoryAddress",
          "type": "address"
        }
      ],
      "stateMutability": "nonpayable",
      "type": "constructor"
    },
    {
      "anonymous": false,
      "inputs": [
        {
          "indexed": false,
          "internalType": "uint256",
          "name": "amount",
          "type": "uint256"
        }
      ],
      "name": "MinimumAmountSet",
      "type": "event"
    },
    {
      "anonymous": false,
      "inputs": [
        {
          "indexed": false,
          "internalType": "uint8",
          "name": "level",
          "type": "uint8"
        }
      ],
      "name": "MinimumLevelSet",
      "type": "event"
    },
    {
      "anonymous": false,
      "inputs": [
        {
          "indexed": true,
          "internalType": "address",
          "name": "previousOwner",
          "type": "address"
        },
        {
          "indexed": true,
          "internalType": "address",
          "name": "newOwner",
          "type": "address"
        }
      ],
      "name": "OwnershipTransferred",
      "type": "event"
    },
    {
      "anonymous": false,
      "inputs": [
        {
          "indexed": false,
          "internalType": "address",
          "name": "account",
          "type": "address"
        }
      ],
      "name": "Paused",
      "type": "event"
    },
    {
      "anonymous": false,
      "inputs": [
        {
          "indexed": false,
          "internalType": "address",
          "name": "_newPaymentAddress",
          "type": "address"
        }
      ],
      "name": "PaymentAddressSet",
      "type": "event"
    },
    {
      "anonymous": false,
      "inputs": [
        {
          "indexed": false,
          "internalType": "address",
          "name": "account",
          "type": "address"
        }
      ],
      "name": "Unpaused",
      "type": "event"
    },
    {
      "anonymous": false,
      "inputs": [
        {
          "indexed": false,
          "internalType": "address[]",
          "name": "player",
          "type": "address[]"
        },
        {
          "indexed": false,
          "internalType": "uint256[]",
          "name": "amount",
          "type": "uint256[]"
        }
      ],
      "name": "WithdrawnBatch",
      "type": "event"
    },
    {
      "inputs": [],
      "name": "minimumLevel",
      "outputs": [
        {
          "internalType": "uint8",
          "name": "",
          "type": "uint8"
        }
      ],
      "stateMutability": "view",
      "type": "function"
    },
    {
      "inputs": [],
      "name": "owner",
      "outputs": [
        {
          "internalType": "address",
          "name": "",
          "type": "address"
        }
      ],
      "stateMutability": "view",
      "type": "function"
    },
    {
      "inputs": [],
      "name": "paused",
      "outputs": [
        {
          "internalType": "bool",
          "name": "",
          "type": "bool"
        }
      ],
      "stateMutability": "view",
      "type": "function"
    },
    {
      "inputs": [],
      "name": "paymentAddress",
      "outputs": [
        {
          "internalType": "address",
          "name": "",
          "type": "address"
        }
      ],
      "stateMutability": "view",
      "type": "function"
    },
    {
      "inputs": [],
      "name": "renounceOwnership",
      "outputs": [],
      "stateMutability": "nonpayable",
      "type": "function"
    },
    {
      "inputs": [
        {
          "internalType": "uint256",
          "name": "_newMin",
          "type": "uint256"
        }
      ],
      "name": "setMinimumAmount",
      "outputs": [],
      "stateMutability": "nonpayable",
      "type": "function"
    },
    {
      "inputs": [
        {
          "internalType": "uint8",
          "name": "_newLevel",
          "type": "uint8"
        }
      ],
      "name": "setMinimumLevel",
      "outputs": [],
      "stateMutability": "nonpayable",
      "type": "function"
    },
    {
      "inputs": [
        {
          "internalType": "address",
          "name": "_newPaymentAddress",
          "type": "address"
        }
      ],
      "name": "setNewPaymentAddress",
      "outputs": [],
      "stateMutability": "nonpayable",
      "type": "function"
    },
    {
      "inputs": [],
      "name": "token",
      "outputs": [
        {
          "internalType": "contract IERC20",
          "name": "",
          "type": "address"
        }
      ],
      "stateMutability": "view",
      "type": "function"
    },
    {
      "inputs": [
        {
          "internalType": "address",
          "name": "newOwner",
          "type": "address"
        }
      ],
      "name": "transferOwnership",
      "outputs": [],
      "stateMutability": "nonpayable",
      "type": "function"
    },
    {
      "inputs": [
        {
          "internalType": "address[]",
          "name": "_to",
          "type": "address[]"
        },
        {
          "internalType": "uint256[]",
          "name": "_amounts",
          "type": "uint256[]"
        }
      ],
      "name": "withdrawBatch",
      "outputs": [],
      "stateMutability": "nonpayable",
      "type": "function"
    }
  ],
  "bytecode": "0x60a06040526002805460ff60a01b1916600160a01b1790556828a857425466f800006003553480156200003157600080fd5b50604051620016cf380380620016cf83398101604081905262000054916200015c565b6000805460ff191690556200006933620000ea565b6001600160a01b038216620000b35760405162461bcd60e51b815260206004820152600c60248201526b5a65726f206164647265737360a01b604482015260640160405180910390fd5b6001600160a01b03928316608052600280549284166001600160a01b031993841617905560018054919093169116179055620001b0565b600080546001600160a01b03838116610100818102610100600160a81b0319851617855560405193049190911692909183917f8be0079c531659141344cd1fd0a4f28419497f9722a3daafe3b4186f6b6457e091a35050565b6001600160a01b03811681146200015957600080fd5b50565b6000806000606084860312156200017257600080fd5b83516200017f8162000143565b6020850151909350620001928162000143565b6040850151909250620001a58162000143565b809150509250925092565b6080516114fc620001d3600039600081816101f60152610ba201526114fc6000f3fe608060405234801561001057600080fd5b50600436106100c95760003560e01c806375126deb11610081578063eeb4a9c81161005b578063eeb4a9c8146101cb578063f2fde38b146101de578063fc0c546a146101f157600080fd5b806375126deb1461015e5780638da5cb5b14610195578063cb94aa26146101b857600080fd5b80635c975abb116100b25780635c975abb146100f6578063633423be14610111578063715018a61461015657600080fd5b80634ced179c146100ce57806356a9ff1e146100e3575b600080fd5b6100e16100dc366004610f3e565b610218565b005b6100e16100f1366004610f6a565b610302565b60005460ff1660405190151581526020015b60405180910390f35b6002546101319073ffffffffffffffffffffffffffffffffffffffff1681565b60405173ffffffffffffffffffffffffffffffffffffffff9091168152602001610108565b6100e1610384565b6002546101839074010000000000000000000000000000000000000000900460ff1681565b60405160ff9091168152602001610108565b600054610100900473ffffffffffffffffffffffffffffffffffffffff16610131565b6100e16101c6366004610fd3565b610398565b6100e16101d936600461103f565b6104a2565b6100e16101ec366004610f3e565b6104ef565b6101317f000000000000000000000000000000000000000000000000000000000000000081565b61022061058c565b73ffffffffffffffffffffffffffffffffffffffff81166102885760405162461bcd60e51b815260206004820152600960248201527f416464726573732030000000000000000000000000000000000000000000000060448201526064015b60405180910390fd5b600280547fffffffffffffffffffffffff00000000000000000000000000000000000000001673ffffffffffffffffffffffffffffffffffffffff83169081179091556040519081527f38090c89eb5670fd5b58396dc473f33bae4d1a92b896e40087638b5e9e151c70906020015b60405180910390a150565b61030a61058c565b600280547fffffffffffffffffffffff00ffffffffffffffffffffffffffffffffffffffff167401000000000000000000000000000000000000000060ff8416908102919091179091556040519081527f122e97d7dbd7ec574ff4003c34968098cb6f36358b10011bf9c13abd31e62f1e906020016102f7565b61038c61058c565b61039660006105f9565b565b6103a061058c565b6103a8610676565b828181146103f85760405162461bcd60e51b815260206004820152601260248201527f41727261797320646f6e2774206d617463680000000000000000000000000000604482015260640161027f565b60005b8181101561045d5761044b86868381811061041857610418611058565b905060200201602081019061042d9190610f3e565b85858481811061043f5761043f611058565b905060200201356106c9565b80610455816110b6565b9150506103fb565b507f67828b7207f20de3f7deb04b8931587279240a8d59362cfc68790130b65456118585858560405161049394939291906110ee565b60405180910390a15050505050565b6104aa61058c565b6104bc81670de0b6b3a7640000611192565b6003556040518181527f63d28b05daf30c169f977bdece231f2c8fd90b9c62651fddcf959add53a7f992906020016102f7565b6104f761058c565b73ffffffffffffffffffffffffffffffffffffffff81166105805760405162461bcd60e51b815260206004820152602660248201527f4f776e61626c653a206e6577206f776e657220697320746865207a65726f206160448201527f6464726573730000000000000000000000000000000000000000000000000000606482015260840161027f565b610589816105f9565b50565b60005473ffffffffffffffffffffffffffffffffffffffff6101009091041633146103965760405162461bcd60e51b815260206004820181905260248201527f4f776e61626c653a2063616c6c6572206973206e6f7420746865206f776e6572604482015260640161027f565b6000805473ffffffffffffffffffffffffffffffffffffffff8381166101008181027fffffffffffffffffffffff0000000000000000000000000000000000000000ff851617855560405193049190911692909183917f8be0079c531659141344cd1fd0a4f28419497f9722a3daafe3b4186f6b6457e091a35050565b60005460ff16156103965760405162461bcd60e51b815260206004820152601060248201527f5061757361626c653a2070617573656400000000000000000000000000000000604482015260640161027f565b600081116107195760405162461bcd60e51b815260206004820152600e60248201527f496e76616c696420616d6f756e74000000000000000000000000000000000000604482015260640161027f565b6001546040517f5c7e140500000000000000000000000000000000000000000000000000000000815273ffffffffffffffffffffffffffffffffffffffff84811660048301526000921690635c7e14059060240160c060405180830381865afa15801561078a573d6000803e3d6000fd5b505050506040513d601f19601f820116820180604052508101906107ae919061124d565b905080606001518211156108045760405162461bcd60e51b815260206004820152601460248201527f496e73756666696369656e742062616c616e6365000000000000000000000000604482015260640161027f565b60208101516040517fa38e639c00000000000000000000000000000000000000000000000000000000815260009173__$4d4db2fd1e25d93f472c3ce2e92eb4695e$__9163a38e639c9161085e9160040190815260200190565b602060405180830381865af415801561087b573d6000803e3d6000fd5b505050506040513d601f19601f8201168201806040525081019061089f91906112d0565b60025460ff9182169250740100000000000000000000000000000000000000009004168110156109115760405162461bcd60e51b815260206004820152601260248201527f496e73756666696369656e74206c6576656c0000000000000000000000000000604482015260640161027f565b6001546040517f724dbe4500000000000000000000000000000000000000000000000000000000815273ffffffffffffffffffffffffffffffffffffffff8681166004830152600092169063724dbe4590602401600060405180830381865afa158015610982573d6000803e3d6000fd5b505050506040513d6000823e601f3d9081017fffffffffffffffffffffffffffffffffffffffffffffffffffffffffffffffe01682016040526109c891908101906112ed565b9050600084815b8351811015610aca578381815181106109ea576109ea611058565b60209081029190910101516040517fef8c07ca00000000000000000000000000000000000000000000000000000000815273ffffffffffffffffffffffffffffffffffffffff8a81166004830152602482018590529091169063ef8c07ca906044016020604051808303816000875af1158015610a6b573d6000803e3d6000fd5b505050506040513d601f19601f82011682018060405250810190610a8f919061139f565b610a9990846113b8565b925086831015610aca5786831015610ab857610ab583836113d1565b91505b80610ac2816110b6565b9150506109cf565b506001546040517f5c7e140500000000000000000000000000000000000000000000000000000000815273ffffffffffffffffffffffffffffffffffffffff89811660048301526000921690635c7e14059060240160c060405180830381865afa158015610b3c573d6000803e3d6000fd5b505050506040513d601f19601f82011682018060405250810190610b60919061124d565b9050868660600151610b7291906113d1565b816060015114610b8457610b846113e4565b600254610bcc9073ffffffffffffffffffffffffffffffffffffffff7f0000000000000000000000000000000000000000000000000000000000000000811691168a8a610bd6565b5050505050505050565b6040805173ffffffffffffffffffffffffffffffffffffffff85811660248301528416604482015260648082018490528251808303909101815260849091019091526020810180517bffffffffffffffffffffffffffffffffffffffffffffffffffffffff167f23b872dd00000000000000000000000000000000000000000000000000000000179052610c6b908590610c71565b50505050565b6000610cd3826040518060400160405280602081526020017f5361666545524332303a206c6f772d6c6576656c2063616c6c206661696c65648152508573ffffffffffffffffffffffffffffffffffffffff16610d689092919063ffffffff16565b805190915015610d635780806020019051810190610cf19190611413565b610d635760405162461bcd60e51b815260206004820152602a60248201527f5361666545524332303a204552433230206f7065726174696f6e20646964206e60448201527f6f74207375636365656400000000000000000000000000000000000000000000606482015260840161027f565b505050565b6060610d778484600085610d81565b90505b9392505050565b606082471015610df95760405162461bcd60e51b815260206004820152602660248201527f416464726573733a20696e73756666696369656e742062616c616e636520666f60448201527f722063616c6c0000000000000000000000000000000000000000000000000000606482015260840161027f565b73ffffffffffffffffffffffffffffffffffffffff85163b610e5d5760405162461bcd60e51b815260206004820152601d60248201527f416464726573733a2063616c6c20746f206e6f6e2d636f6e7472616374000000604482015260640161027f565b6000808673ffffffffffffffffffffffffffffffffffffffff168587604051610e869190611459565b60006040518083038185875af1925050503d8060008114610ec3576040519150601f19603f3d011682016040523d82523d6000602084013e610ec8565b606091505b5091509150610ed8828286610ee3565b979650505050505050565b60608315610ef2575081610d7a565b825115610f025782518084602001fd5b8160405162461bcd60e51b815260040161027f9190611475565b73ffffffffffffffffffffffffffffffffffffffff8116811461058957600080fd5b600060208284031215610f5057600080fd5b8135610d7a81610f1c565b60ff8116811461058957600080fd5b600060208284031215610f7c57600080fd5b8135610d7a81610f5b565b60008083601f840112610f9957600080fd5b50813567ffffffffffffffff811115610fb157600080fd5b6020830191508360208260051b8501011115610fcc57600080fd5b9250929050565b60008060008060408587031215610fe957600080fd5b843567ffffffffffffffff8082111561100157600080fd5b61100d88838901610f87565b9096509450602087013591508082111561102657600080fd5b5061103387828801610f87565b95989497509550505050565b60006020828403121561105157600080fd5b5035919050565b7f4e487b7100000000000000000000000000000000000000000000000000000000600052603260045260246000fd5b7f4e487b7100000000000000000000000000000000000000000000000000000000600052601160045260246000fd5b60007fffffffffffffffffffffffffffffffffffffffffffffffffffffffffffffffff82036110e7576110e7611087565b5060010190565b6040808252810184905260008560608301825b8781101561113e57823561111481610f1c565b73ffffffffffffffffffffffffffffffffffffffff16825260209283019290910190600101611101565b5083810360208501528481527f07ffffffffffffffffffffffffffffffffffffffffffffffffffffffffffffff85111561117757600080fd5b8460051b915081866020830137016020019695505050505050565b6000817fffffffffffffffffffffffffffffffffffffffffffffffffffffffffffffffff04831182151516156111ca576111ca611087565b500290565b7f4e487b7100000000000000000000000000000000000000000000000000000000600052604160045260246000fd5b604051601f82017fffffffffffffffffffffffffffffffffffffffffffffffffffffffffffffffe016810167ffffffffffffffff81118282101715611245576112456111cf565b604052919050565b600060c0828403121561125f57600080fd5b60405160c0810181811067ffffffffffffffff82111715611282576112826111cf565b604052825161129081610f1c565b808252506020830151602082015260408301516040820152606083015160608201526080830151608082015260a083015160a08201528091505092915050565b6000602082840312156112e257600080fd5b8151610d7a81610f5b565b6000602080838503121561130057600080fd5b825167ffffffffffffffff8082111561131857600080fd5b818501915085601f83011261132c57600080fd5b81518181111561133e5761133e6111cf565b8060051b915061134f8483016111fe565b818152918301840191848101908884111561136957600080fd5b938501935b83851015611393578451925061138383610f1c565b828252938501939085019061136e565b98975050505050505050565b6000602082840312156113b157600080fd5b5051919050565b808201808211156113cb576113cb611087565b92915050565b818103818111156113cb576113cb611087565b7f4e487b7100000000000000000000000000000000000000000000000000000000600052600160045260246000fd5b60006020828403121561142557600080fd5b81518015158114610d7a57600080fd5b60005b83811015611450578181015183820152602001611438565b50506000910152565b6000825161146b818460208701611435565b9190910192915050565b6020815260008251806020840152611494816040850160208701611435565b601f017fffffffffffffffffffffffffffffffffffffffffffffffffffffffffffffffe016919091016040019291505056fea264697066735822122070043ec5166aa9656efe956504704385455c9447491e111672671c302bfd481a64736f6c63430008100033",
  "linkReferences": {
    "contracts/libraries/LevelLib.sol": {
      "LevelLib": [
        {
          "length": 20,
          "start": 2567
        }
      ]
    }
  },
  "deployedLinkReferences": {
    "contracts/libraries/LevelLib.sol": {
      "LevelLib": [
        {
          "length": 20,
          "start": 2100
        }
      ]
    }
  }
}