{
  "_format": "hh-sol-artifact-1",
  "contractName": "PaymentManager",
  "sourceName": "contracts/PaymentManager.sol",
  "abi": [
    {
      "inputs": [
        {
          "internalType": "contract IERC20",
          "name": "_token",
          "type": "address"
        },
        {
          "internalType": "address",
          "name": "_paymentAddress",
          "type": "address"
        },
        {
          "internalType": "address",
          "name": "_gameFactoryAddress",
          "type": "address"
        }
      ],
      "stateMutability": "nonpayable",
      "type": "constructor"
    },
    {
      "anonymous": false,
      "inputs": [
        {
          "indexed": false,
          "internalType": "uint256",
          "name": "amount",
          "type": "uint256"
        }
      ],
      "name": "MinimumAmountSet",
      "type": "event"
    },
    {
      "anonymous": false,
      "inputs": [
        {
          "indexed": false,
          "internalType": "uint8",
          "name": "level",
          "type": "uint8"
        }
      ],
      "name": "MinimumLevelSet",
      "type": "event"
    },
    {
      "anonymous": false,
      "inputs": [
        {
          "indexed": true,
          "internalType": "address",
          "name": "previousOwner",
          "type": "address"
        },
        {
          "indexed": true,
          "internalType": "address",
          "name": "newOwner",
          "type": "address"
        }
      ],
      "name": "OwnershipTransferred",
      "type": "event"
    },
    {
      "anonymous": false,
      "inputs": [
        {
          "indexed": false,
          "internalType": "address",
          "name": "account",
          "type": "address"
        }
      ],
      "name": "Paused",
      "type": "event"
    },
    {
      "anonymous": false,
      "inputs": [
        {
          "indexed": false,
          "internalType": "address",
          "name": "_newPaymentAddress",
          "type": "address"
        }
      ],
      "name": "PaymentAddressSet",
      "type": "event"
    },
    {
      "anonymous": false,
      "inputs": [
        {
          "indexed": false,
          "internalType": "address",
          "name": "account",
          "type": "address"
        }
      ],
      "name": "Unpaused",
      "type": "event"
    },
    {
      "anonymous": false,
      "inputs": [
        {
          "indexed": false,
          "internalType": "address[]",
          "name": "player",
          "type": "address[]"
        },
        {
          "indexed": false,
          "internalType": "uint256[]",
          "name": "amount",
          "type": "uint256[]"
        }
      ],
      "name": "WithdrawnBatch",
      "type": "event"
    },
    {
      "inputs": [],
      "name": "minimumLevel",
      "outputs": [
        {
          "internalType": "uint8",
          "name": "",
          "type": "uint8"
        }
      ],
      "stateMutability": "view",
      "type": "function"
    },
    {
      "inputs": [],
      "name": "owner",
      "outputs": [
        {
          "internalType": "address",
          "name": "",
          "type": "address"
        }
      ],
      "stateMutability": "view",
      "type": "function"
    },
    {
      "inputs": [],
      "name": "paused",
      "outputs": [
        {
          "internalType": "bool",
          "name": "",
          "type": "bool"
        }
      ],
      "stateMutability": "view",
      "type": "function"
    },
    {
      "inputs": [],
      "name": "paymentAddress",
      "outputs": [
        {
          "internalType": "address",
          "name": "",
          "type": "address"
        }
      ],
      "stateMutability": "view",
      "type": "function"
    },
    {
      "inputs": [],
      "name": "renounceOwnership",
      "outputs": [],
      "stateMutability": "nonpayable",
      "type": "function"
    },
    {
      "inputs": [
        {
          "internalType": "uint256",
          "name": "_newMin",
          "type": "uint256"
        }
      ],
      "name": "setMinimumAmount",
      "outputs": [],
      "stateMutability": "nonpayable",
      "type": "function"
    },
    {
      "inputs": [
        {
          "internalType": "uint8",
          "name": "_newLevel",
          "type": "uint8"
        }
      ],
      "name": "setMinimumLevel",
      "outputs": [],
      "stateMutability": "nonpayable",
      "type": "function"
    },
    {
      "inputs": [
        {
          "internalType": "address",
          "name": "_newPaymentAddress",
          "type": "address"
        }
      ],
      "name": "setNewPaymentAddress",
      "outputs": [],
      "stateMutability": "nonpayable",
      "type": "function"
    },
    {
      "inputs": [],
      "name": "token",
      "outputs": [
        {
          "internalType": "contract IERC20",
          "name": "",
          "type": "address"
        }
      ],
      "stateMutability": "view",
      "type": "function"
    },
    {
      "inputs": [
        {
          "internalType": "address",
          "name": "newOwner",
          "type": "address"
        }
      ],
      "name": "transferOwnership",
      "outputs": [],
      "stateMutability": "nonpayable",
      "type": "function"
    },
    {
      "inputs": [
        {
          "internalType": "address[]",
          "name": "_to",
          "type": "address[]"
        },
        {
          "internalType": "uint256[]",
          "name": "_amounts",
          "type": "uint256[]"
        }
      ],
      "name": "withdrawBatch",
      "outputs": [],
      "stateMutability": "nonpayable",
      "type": "function"
    }
  ],
  "bytecode": "0x60a06040526002805460ff60a01b1916600160a01b1790556828a857425466f800006003553480156200003157600080fd5b50604051620012ff380380620012ff83398101604081905262000054916200015c565b6000805460ff191690556200006933620000ea565b6001600160a01b038216620000b35760405162461bcd60e51b815260206004820152600c60248201526b5a65726f206164647265737360a01b604482015260640160405180910390fd5b6001600160a01b03928316608052600280549284166001600160a01b031993841617905560018054919093169116179055620001b0565b600080546001600160a01b03838116610100818102610100600160a81b0319851617855560405193049190911692909183917f8be0079c531659141344cd1fd0a4f28419497f9722a3daafe3b4186f6b6457e091a35050565b6001600160a01b03811681146200015957600080fd5b50565b6000806000606084860312156200017257600080fd5b83516200017f8162000143565b6020850151909350620001928162000143565b6040850151909250620001a58162000143565b809150509250925092565b60805161112c620001d360003960008181610193015261095a015261112c6000f3fe608060405234801561001057600080fd5b50600436106100a95760003560e01c806375126deb1161007157806375126deb146101195780638da5cb5b1461013f578063cb94aa2614610155578063eeb4a9c814610168578063f2fde38b1461017b578063fc0c546a1461018e57600080fd5b80634ced179c146100ae57806356a9ff1e146100c35780635c975abb146100d6578063633423be146100f1578063715018a614610111575b600080fd5b6100c16100bc366004610c5d565b6101b5565b005b6100c16100d1366004610c89565b61025a565b60005460ff1660405190151581526020015b60405180910390f35b600254610104906001600160a01b031681565b6040516100e89190610ca6565b6100c16102b0565b60025461012d90600160a01b900460ff1681565b60405160ff90911681526020016100e8565b60005461010090046001600160a01b0316610104565b6100c1610163366004610d06565b6102c4565b6100c1610176366004610d72565b6103c3565b6100c1610189366004610c5d565b610410565b6101047f000000000000000000000000000000000000000000000000000000000000000081565b6101bd610489565b6001600160a01b0381166102045760405162461bcd60e51b815260206004820152600960248201526804164647265737320360bc1b60448201526064015b60405180910390fd5b600280546001600160a01b0319166001600160a01b0383161790556040517f38090c89eb5670fd5b58396dc473f33bae4d1a92b896e40087638b5e9e151c709061024f908390610ca6565b60405180910390a150565b610262610489565b6002805460ff60a01b1916600160a01b60ff8416908102919091179091556040519081527f122e97d7dbd7ec574ff4003c34968098cb6f36358b10011bf9c13abd31e62f1e9060200161024f565b6102b8610489565b6102c260006104e9565b565b6102cc610489565b6102d4610542565b828181146103195760405162461bcd60e51b8152602060048201526012602482015271082e4e4c2f2e640c8dedc4ee840dac2e8c6d60731b60448201526064016101fb565b60005b8181101561037e5761036c86868381811061033957610339610d8b565b905060200201602081019061034e9190610c5d565b85858481811061036057610360610d8b565b90506020020135610588565b8061037681610db7565b91505061031c565b507f67828b7207f20de3f7deb04b8931587279240a8d59362cfc68790130b6545611858585856040516103b49493929190610dd0565b60405180910390a15050505050565b6103cb610489565b6103dd81670de0b6b3a7640000610e4e565b6003556040518181527f63d28b05daf30c169f977bdece231f2c8fd90b9c62651fddcf959add53a7f9929060200161024f565b610418610489565b6001600160a01b03811661047d5760405162461bcd60e51b815260206004820152602660248201527f4f776e61626c653a206e6577206f776e657220697320746865207a65726f206160448201526564647265737360d01b60648201526084016101fb565b610486816104e9565b50565b6000546001600160a01b036101009091041633146102c25760405162461bcd60e51b815260206004820181905260248201527f4f776e61626c653a2063616c6c6572206973206e6f7420746865206f776e657260448201526064016101fb565b600080546001600160a01b03838116610100818102610100600160a81b0319851617855560405193049190911692909183917f8be0079c531659141344cd1fd0a4f28419497f9722a3daafe3b4186f6b6457e091a35050565b60005460ff16156102c25760405162461bcd60e51b815260206004820152601060248201526f14185d5cd8589b194e881c185d5cd95960821b60448201526064016101fb565b600081116105c95760405162461bcd60e51b815260206004820152600e60248201526d125b9d985b1a5908185b5bdd5b9d60921b60448201526064016101fb565b600154604051635c7e140560e01b81526000916001600160a01b031690635c7e1405906105fa908690600401610ca6565b60c060405180830381865afa158015610617573d6000803e3d6000fd5b505050506040513d601f19601f8201168201806040525081019061063b9190610eb4565b905080606001518211156106885760405162461bcd60e51b8152602060048201526014602482015273496e73756666696369656e742062616c616e636560601b60448201526064016101fb565b60208101516040516328e398e760e21b815260009173__$4d4db2fd1e25d93f472c3ce2e92eb4695e$__9163a38e639c916106c99160040190815260200190565b602060405180830381865af41580156106e6573d6000803e3d6000fd5b505050506040513d601f19601f8201168201806040525081019061070a9190610f37565b60025460ff9182169250600160a01b9004168110156107605760405162461bcd60e51b8152602060048201526012602482015271125b9cdd59999a58da595b9d081b195d995b60721b60448201526064016101fb565b60015460405163724dbe4560e01b81526000916001600160a01b03169063724dbe4590610791908890600401610ca6565b600060405180830381865afa1580156107ae573d6000803e3d6000fd5b505050506040513d6000823e601f3d908101601f191682016040526107d69190810190610f54565b9050600084815b83518110156108b2578381815181106107f8576107f8610d8b565b60209081029190910101516040516377c603e560e11b81526001600160a01b038a81166004830152602482018590529091169063ef8c07ca906044016020604051808303816000875af1158015610853573d6000803e3d6000fd5b505050506040513d601f19601f820116820180604052508101906108779190611006565b610881908461101f565b9250868310156108b257868310156108a05761089d8383611038565b91505b806108aa81610db7565b9150506107dd565b50600154604051635c7e140560e01b81526000916001600160a01b031690635c7e1405906108e4908b90600401610ca6565b60c060405180830381865afa158015610901573d6000803e3d6000fd5b505050506040513d601f19601f820116820180604052508101906109259190610eb4565b90508686606001516109379190611038565b8160600151146109495761094961104b565b600254610984906001600160a01b037f0000000000000000000000000000000000000000000000000000000000000000811691168a8a61098e565b5050505050505050565b604080516001600160a01b0385811660248301528416604482015260648082018490528251808303909101815260849091019091526020810180516001600160e01b03166323b872dd60e01b1790526109e89085906109ee565b50505050565b6000610a43826040518060400160405280602081526020017f5361666545524332303a206c6f772d6c6576656c2063616c6c206661696c6564815250856001600160a01b0316610ac59092919063ffffffff16565b805190915015610ac05780806020019051810190610a619190611061565b610ac05760405162461bcd60e51b815260206004820152602a60248201527f5361666545524332303a204552433230206f7065726174696f6e20646964206e6044820152691bdd081cdd58d8d9595960b21b60648201526084016101fb565b505050565b6060610ad48484600085610ade565b90505b9392505050565b606082471015610b3f5760405162461bcd60e51b815260206004820152602660248201527f416464726573733a20696e73756666696369656e742062616c616e636520666f6044820152651c8818d85b1b60d21b60648201526084016101fb565b6001600160a01b0385163b610b965760405162461bcd60e51b815260206004820152601d60248201527f416464726573733a2063616c6c20746f206e6f6e2d636f6e747261637400000060448201526064016101fb565b600080866001600160a01b03168587604051610bb291906110a7565b60006040518083038185875af1925050503d8060008114610bef576040519150601f19603f3d011682016040523d82523d6000602084013e610bf4565b606091505b5091509150610c04828286610c0f565b979650505050505050565b60608315610c1e575081610ad7565b825115610c2e5782518084602001fd5b8160405162461bcd60e51b81526004016101fb91906110c3565b6001600160a01b038116811461048657600080fd5b600060208284031215610c6f57600080fd5b8135610ad781610c48565b60ff8116811461048657600080fd5b600060208284031215610c9b57600080fd5b8135610ad781610c7a565b6001600160a01b0391909116815260200190565b60008083601f840112610ccc57600080fd5b50813567ffffffffffffffff811115610ce457600080fd5b6020830191508360208260051b8501011115610cff57600080fd5b9250929050565b60008060008060408587031215610d1c57600080fd5b843567ffffffffffffffff80821115610d3457600080fd5b610d4088838901610cba565b90965094506020870135915080821115610d5957600080fd5b50610d6687828801610cba565b95989497509550505050565b600060208284031215610d8457600080fd5b5035919050565b634e487b7160e01b600052603260045260246000fd5b634e487b7160e01b600052601160045260246000fd5b600060018201610dc957610dc9610da1565b5060010190565b6040808252810184905260008560608301825b87811015610e13578235610df681610c48565b6001600160a01b0316825260209283019290910190600101610de3565b5083810360208501528481526001600160fb1b03851115610e3357600080fd5b8460051b915081866020830137016020019695505050505050565b6000816000190483118215151615610e6857610e68610da1565b500290565b634e487b7160e01b600052604160045260246000fd5b604051601f8201601f1916810167ffffffffffffffff81118282101715610eac57610eac610e6d565b604052919050565b600060c08284031215610ec657600080fd5b60405160c0810181811067ffffffffffffffff82111715610ee957610ee9610e6d565b6040528251610ef781610c48565b808252506020830151602082015260408301516040820152606083015160608201526080830151608082015260a083015160a08201528091505092915050565b600060208284031215610f4957600080fd5b8151610ad781610c7a565b60006020808385031215610f6757600080fd5b825167ffffffffffffffff80821115610f7f57600080fd5b818501915085601f830112610f9357600080fd5b815181811115610fa557610fa5610e6d565b8060051b9150610fb6848301610e83565b8181529183018401918481019088841115610fd057600080fd5b938501935b83851015610ffa5784519250610fea83610c48565b8282529385019390850190610fd5565b98975050505050505050565b60006020828403121561101857600080fd5b5051919050565b8082018082111561103257611032610da1565b92915050565b8181038181111561103257611032610da1565b634e487b7160e01b600052600160045260246000fd5b60006020828403121561107357600080fd5b81518015158114610ad757600080fd5b60005b8381101561109e578181015183820152602001611086565b50506000910152565b600082516110b9818460208701611083565b9190910192915050565b60208152600082518060208401526110e2816040850160208701611083565b601f01601f1916919091016040019291505056fea26469706673582212206d6a957add0165407106db8ca1a2db0d7d0e7a3159b113cc602ea88ff388fe0964736f6c63430008100033",
  "linkReferences": {
    "contracts/libraries/LevelLib.sol": {
      "LevelLib": [
        {
          "length": 20,
          "start": 2162
        }
      ]
    }
  },
  "deployedLinkReferences": {
    "contracts/libraries/LevelLib.sol": {
      "LevelLib": [
        {
          "length": 20,
          "start": 1695
        }
      ]
    }
  }
}