{
  "_format": "hh-sol-artifact-1",
  "contractName": "LevelLib",
  "sourceName": "contracts/libraries/LevelLib.sol",
  "abi": [
    {
      "inputs": [],
      "name": "BEGINNER",
      "outputs": [
        {
          "internalType": "uint8",
          "name": "",
          "type": "uint8"
        }
      ],
      "stateMutability": "view",
      "type": "function"
    },
    {
      "inputs": [],
      "name": "GRAN_MASTER",
      "outputs": [
        {
          "internalType": "uint8",
          "name": "",
          "type": "uint8"
        }
      ],
      "stateMutability": "view",
      "type": "function"
    },
    {
      "inputs": [],
      "name": "INTERMEDIATE",
      "outputs": [
        {
          "internalType": "uint8",
          "name": "",
          "type": "uint8"
        }
      ],
      "stateMutability": "view",
      "type": "function"
    },
    {
      "inputs": [],
      "name": "JUGGERNAUT",
      "outputs": [
        {
          "internalType": "uint8",
          "name": "",
          "type": "uint8"
        }
      ],
      "stateMutability": "view",
      "type": "function"
    },
    {
      "inputs": [],
      "name": "NEWBIE",
      "outputs": [
        {
          "internalType": "uint8",
          "name": "",
          "type": "uint8"
        }
      ],
      "stateMutability": "view",
      "type": "function"
    },
    {
      "inputs": [],
      "name": "UADVANCED",
      "outputs": [
        {
          "internalType": "uint8",
          "name": "",
          "type": "uint8"
        }
      ],
      "stateMutability": "view",
      "type": "function"
    },
    {
      "inputs": [],
      "name": "ULTIMATE",
      "outputs": [
        {
          "internalType": "uint8",
          "name": "",
          "type": "uint8"
        }
      ],
      "stateMutability": "view",
      "type": "function"
    },
    {
      "inputs": [
        {
          "internalType": "uint256",
          "name": "_xp",
          "type": "uint256"
        }
      ],
      "name": "getLevelFromXp",
      "outputs": [
        {
          "internalType": "uint8",
          "name": "level",
          "type": "uint8"
        }
      ],
      "stateMutability": "pure",
      "type": "function"
    },
    {
      "inputs": [
        {
          "internalType": "uint8",
          "name": "_level",
          "type": "uint8"
        },
        {
          "internalType": "uint8",
          "name": "_required",
          "type": "uint8"
        }
      ],
      "name": "isUnlockedPerLvl",
      "outputs": [
        {
          "internalType": "bool",
          "name": "isUnlocked",
          "type": "bool"
        }
      ],
      "stateMutability": "pure",
      "type": "function"
    },
    {
      "inputs": [
        {
          "internalType": "uint256",
          "name": "_xp",
          "type": "uint256"
        },
        {
          "internalType": "uint8",
          "name": "_required",
          "type": "uint8"
        }
      ],
      "name": "isUnlockedPerXp",
      "outputs": [
        {
          "internalType": "bool",
          "name": "isUnlocked",
          "type": "bool"
        }
      ],
      "stateMutability": "pure",
      "type": "function"
    }
  ],
  "bytecode": "0x610c9d610053600b82828239805160001a607314610046577f4e487b7100000000000000000000000000000000000000000000000000000000600052600060045260246000fd5b30600052607381538281f3fe73000000000000000000000000000000000000000030146080604052600436106100c85760003560e01c8063b6a1620311610080578063c1636bd811610065578063c1636bd8146101c3578063d28a7bcd146101e1578063dabce5e114610211576100c8565b8063b6a1620314610187578063c0d37d0e146101a5576100c8565b8063a38e639c116100b1578063a38e639c14610109578063a911fb1514610139578063b106061414610157576100c8565b8063444df664146100cd578063592b58d6146100eb575b600080fd5b6100d561022f565b6040516100e29190610b02565b60405180910390f35b6100f3610234565b6040516101009190610b02565b60405180910390f35b610123600480360381019061011e9190610b58565b610239565b6040516101309190610b02565b60405180910390f35b610141610976565b60405161014e9190610b02565b60405180910390f35b610171600480360381019061016c9190610bb1565b61097b565b60405161017e9190610c0c565b60405180910390f35b61018f610a21565b60405161019c9190610b02565b60405180910390f35b6101ad610a26565b6040516101ba9190610b02565b60405180910390f35b6101cb610a2b565b6040516101d89190610b02565b60405180910390f35b6101fb60048036038101906101f69190610c27565b610a30565b6040516102089190610c0c565b60405180910390f35b610219610ade565b6040516102269190610b02565b60405180910390f35b600581565b600081565b60006102677f772ea43bdac71c1be79861874a605d6906889caf79207c9efc9e7534d124857c60001b610ae3565b6102937f521851df157461a087487a46799dd12c87a47af4b32c0288d86dd1af4d62365360001b610ae3565b6102bf7fd9745ea217577a924e05488f071e8191f11325b629199510d19e54bcf399c42d60001b610ae3565b6103e8821015610356576102f57f4ef508d8d8a69869cb324e77637f80ed269d8e3590e3e23b22d61b92daf5b71460001b610ae3565b6103217f787acd0c48096a15b2745a9598ee2189ec4839add1a04055d9852f8d6c2cc6df60001b610ae3565b61034d7feaf8ebde10c82501d3b5389db04a0cba1e0b3fb02eae147aded965a0a2b71d8260001b610ae3565b60009050610971565b6103827f0b1b65dea88642ef910beb8c9af9b905fe42acfa1b4a24cf0629c95ce6ac820e60001b610ae3565b6103ae7ff87a39fc25f8d7a9a367f69fde8a93604bca42dc4d8b3dead15a2d1b0051ea5260001b610ae3565b6103e882101580156103c1575061271082105b15610453576103f27f94994dfc5cda2a1704b856abb3996d20c75d2680d72481735e763b36edf1d2b760001b610ae3565b61041e7f589581946e23d644b369443d838af7c8819f3a6277b08fcd86cbd47a630cf59760001b610ae3565b61044a7fd78424aa4eadc27fb8c4619de20bff65eed03e316560850dc30d530362b1947160001b610ae3565b60019050610970565b61047f7fa70a0f1680b4ad203211197eced985cb15d2d49d717e466582a6046770f224d560001b610ae3565b6104ab7fc72e679d2382be4a8171bce191e966e56f50b8f2b1355bd87652b998c720fbde60001b610ae3565b61271082101580156104bf5750620186a082105b15610551576104f07f106722b1190619fa89fd4c06bd3c9255cc90b70771736e7a1e64b5ea540352a160001b610ae3565b61051c7f42e753b734e612badc28e2830fd17b07160b4eda226358b26169d120752ff8ba60001b610ae3565b6105487f97d5a43450e989d0c00be690e01f6d1ea623e326314d19621a8eb17333101e7160001b610ae3565b6002905061096f565b61057d7f8119c06ace9343aeb5e83ec0eab7550fbb75ca466bf930cbf1b244d3d6901a4060001b610ae3565b6105a97fe4e395040d1adc2647697952ee7f54b15aa86c0431926fd11b1c64f57f97219f60001b610ae3565b620186a082101580156105be5750620f424082105b15610650576105ef7f7557681f70ffae66405df8286c06cc9bbbca669df59b1e374232c29d54db620160001b610ae3565b61061b7f717eec79cd5c16bbe1876fa511c7e7d923504e119e597ed636dc8fa6afc4d4c960001b610ae3565b6106477fd12a0a52bb50168c9c716634853e74f4ef5bd99289519606b5ec4c93bdbf8b7060001b610ae3565b6003905061096e565b61067c7f06776d027fd0f102578e4052d1efca897c35c6bb67c503451483953dac278b1360001b610ae3565b6106a87fd17858209b281be2ab21bc0d530f38f852090460eaf0648caaa32f888c12fd3f60001b610ae3565b620f424082101580156106bd57506298968082105b1561074f576106ee7f95b83b55feb3bc922d9650389cfc2f481ff502e5c5e80e76a5e097c5016805a260001b610ae3565b61071a7fb1e51d1cfe66fb344be4437bb4606fc459094fa68489a23c72b9b200ce0ddc2960001b610ae3565b6107467f1dafce264db56352c227a196cd86a6de1d968d8d579c83e25fa1075a38dc36ab60001b610ae3565b6004905061096d565b61077b7f1b4f7ef87d80b358363ecade30bf2a65d70b9061f62ddf28b4104817588fb3f460001b610ae3565b6107a77f64ebf2a8522925aef974ca3ee94e9041e9d594e186d7d6cbbbd1d52f1fc20be060001b610ae3565b6298968082101580156107bd57506305f5e10082105b1561084f576107ee7f3733746259ba7483db7afdeaf0b0bbd7f6a0c754ffe2e95f2e931384c42f1e9660001b610ae3565b61081a7f02a1ebe26460c87f3e8daba21cee5d7b8a29c6b5ada757c005a637cd8be9193f60001b610ae3565b6108467f42272f77d29043b015ac1f93fecf80853427c2e674a4f5cab40ff2daa51fa82860001b610ae3565b6005905061096c565b61087b7f026fa737555b3342f50fb11cc8d61bac81657a1ef9b70eb87d89b47e6281b71360001b610ae3565b6108a77f26a1a7440ba09f6bdc4816bda530ee9de7d0e27e872a9a4e9c40c3a290b05fbf60001b610ae3565b6305f5e100821061093e576108de7f02a03bd46e118207fddfe611da3b68fe08ebbae75076a3c39c45aa3f2b7e216b60001b610ae3565b6109097eb7d67aa4556d9face83a09dbc57cc9ff459d76598a979e9642bcd12dd6b43c60001b610ae3565b6109357ff74e4777e498607b26c5ba75ec698a24205b2566a478df9562c72de4741e537360001b610ae3565b6006905061096b565b61096a7f6c2a159a3b4bbeae020a16ecec280d351bd345a2b9b42dccb8fc8c46222fea4e60001b610ae3565b5b5b5b5b5b5b5b919050565b600181565b60006109a97ff2a24c636c5afc6e7a033cf0b08d64d4bf66b3c58f5d372f0b55b52ca8d4616b60001b610ae3565b6109d57fefd7f328a34e0dc48dca238f2a453bfad054dade7fda83b8729e9b85e6e225bd60001b610ae3565b610a017f498c4055e16d5470d1b838d11dc1441eb7eb89ac2fa2cd89619fe142c70d8eca60001b610ae3565b8160ff168360ff161015610a16576000610a19565b60015b905092915050565b600381565b600281565b600681565b6000610a5e7f4505cc071a6617620a332f8a3c67ef437bae8954a54974ae5171e01c82b6762660001b610ae3565b610a8a7f29b8e4bd7a082a6bc1ecc5b3735a25b90879a073a480b3824cd892e2ed0bb35060001b610ae3565b610ab67fec6ddf0235f2fae1775eba907c1d602546dd081d5af9ce18ddca9ff791f502de60001b610ae3565b8160ff16610ac384610239565b60ff161015610ad3576000610ad6565b60015b905092915050565b600481565b50565b600060ff82169050919050565b610afc81610ae6565b82525050565b6000602082019050610b176000830184610af3565b92915050565b600080fd5b6000819050919050565b610b3581610b22565b8114610b4057600080fd5b50565b600081359050610b5281610b2c565b92915050565b600060208284031215610b6e57610b6d610b1d565b5b6000610b7c84828501610b43565b91505092915050565b610b8e81610ae6565b8114610b9957600080fd5b50565b600081359050610bab81610b85565b92915050565b60008060408385031215610bc857610bc7610b1d565b5b6000610bd685828601610b9c565b9250506020610be785828601610b9c565b9150509250929050565b60008115159050919050565b610c0681610bf1565b82525050565b6000602082019050610c216000830184610bfd565b92915050565b60008060408385031215610c3e57610c3d610b1d565b5b6000610c4c85828601610b43565b9250506020610c5d85828601610b9c565b915050925092905056fea2646970667358221220dc49c7f484750861d903b930eef5bb087ecaf2cff540ed73ddfcc91da807d6a064736f6c63430008100033",
  "linkReferences": {},
  "deployedLinkReferences": {}
}