{
  "_format": "hh-sol-artifact-1",
  "contractName": "LevelLib",
  "sourceName": "contracts/libraries/LevelLib.sol",
  "abi": [
    {
      "inputs": [],
      "name": "BEGINNER",
      "outputs": [
        {
          "internalType": "uint8",
          "name": "",
          "type": "uint8"
        }
      ],
      "stateMutability": "view",
      "type": "function"
    },
    {
      "inputs": [],
      "name": "GRAN_MASTER",
      "outputs": [
        {
          "internalType": "uint8",
          "name": "",
          "type": "uint8"
        }
      ],
      "stateMutability": "view",
      "type": "function"
    },
    {
      "inputs": [],
      "name": "INTERMEDIATE",
      "outputs": [
        {
          "internalType": "uint8",
          "name": "",
          "type": "uint8"
        }
      ],
      "stateMutability": "view",
      "type": "function"
    },
    {
      "inputs": [],
      "name": "JUGGERNAUT",
      "outputs": [
        {
          "internalType": "uint8",
          "name": "",
          "type": "uint8"
        }
      ],
      "stateMutability": "view",
      "type": "function"
    },
    {
      "inputs": [],
      "name": "NEWBIE",
      "outputs": [
        {
          "internalType": "uint8",
          "name": "",
          "type": "uint8"
        }
      ],
      "stateMutability": "view",
      "type": "function"
    },
    {
      "inputs": [],
      "name": "UADVANCED",
      "outputs": [
        {
          "internalType": "uint8",
          "name": "",
          "type": "uint8"
        }
      ],
      "stateMutability": "view",
      "type": "function"
    },
    {
      "inputs": [],
      "name": "ULTIMATE",
      "outputs": [
        {
          "internalType": "uint8",
          "name": "",
          "type": "uint8"
        }
      ],
      "stateMutability": "view",
      "type": "function"
    },
    {
      "inputs": [
        {
          "internalType": "uint256",
          "name": "_xp",
          "type": "uint256"
        }
      ],
      "name": "getLevelFromXp",
      "outputs": [
        {
          "internalType": "uint8",
          "name": "level",
          "type": "uint8"
        }
      ],
      "stateMutability": "pure",
      "type": "function"
    },
    {
      "inputs": [
        {
          "internalType": "uint8",
          "name": "_level",
          "type": "uint8"
        },
        {
          "internalType": "uint8",
          "name": "_required",
          "type": "uint8"
        }
      ],
      "name": "isUnlockedPerLvl",
      "outputs": [
        {
          "internalType": "bool",
          "name": "isUnlocked",
          "type": "bool"
        }
      ],
      "stateMutability": "pure",
      "type": "function"
    },
    {
      "inputs": [
        {
          "internalType": "uint256",
          "name": "_xp",
          "type": "uint256"
        },
        {
          "internalType": "uint8",
          "name": "_required",
          "type": "uint8"
        }
      ],
      "name": "isUnlockedPerXp",
      "outputs": [
        {
          "internalType": "bool",
          "name": "isUnlocked",
          "type": "bool"
        }
      ],
      "stateMutability": "pure",
      "type": "function"
    }
  ],
  "bytecode": "0x61030b61003a600b82828239805160001a60731461002d57634e487b7160e01b600052600060045260246000fd5b30600052607381538281f3fe73000000000000000000000000000000000000000030146080604052600436106100a85760003560e01c8063b6a1620311610070578063b6a1620314610112578063c0d37d0e1461011a578063c1636bd814610122578063d28a7bcd1461012a578063dabce5e11461013d57600080fd5b8063444df664146100ad578063592b58d6146100cc578063a38e639c146100d4578063a911fb15146100e7578063b1060614146100ef575b600080fd5b6100b5600581565b60405160ff90911681526020015b60405180910390f35b6100b5600081565b6100b56100e2366004610255565b610145565b6100b5600181565b6101026100fd36600461027f565b610215565b60405190151581526020016100c3565b6100b5600381565b6100b5600281565b6100b5600681565b6101026101383660046102b2565b610236565b6100b5600481565b60006103e882101561015957506000919050565b6103e8821015801561016c575061271082105b1561017957506001919050565b612710821015801561018d5750620186a082105b1561019a57506002919050565b620186a082101580156101af5750620f424082105b156101bc57506003919050565b620f424082101580156101d157506298968082105b156101de57506004919050565b6298968082101580156101f457506305f5e10082105b1561020157506005919050565b6305f5e1008210610210575060065b919050565b60008160ff168360ff16101561022c57600061022f565b60015b9392505050565b60008160ff1661024584610145565b60ff16101561022c57600061022f565b60006020828403121561026757600080fd5b5035919050565b803560ff8116811461021057600080fd5b6000806040838503121561029257600080fd5b61029b8361026e565b91506102a96020840161026e565b90509250929050565b600080604083850312156102c557600080fd5b823591506102a96020840161026e56fea26469706673582212202643fce047717db2a30d9450c109f286778dd98fc15f8fb49ee192b0c61823c264736f6c63430008100033",
  "linkReferences": {},
  "deployedLinkReferences": {}
}